:020000040800F2
:10400000A82B002021410008334D0008154B000863
:10401000314D000807420008A95C000800000000BC
:1040200000000000000000000000000039500008FF
:104030005D47000800000000ED4E000855570008DD
:104040003B4100083B4100083B4100083B41000860
:104050003B4100083B410008D94700083B410008AC
:104060003B4100083B4100083B4100083B41000840
:104070003B4100083B4100083B4100083B41000830
:104080003B4100083B4100083B4100081F5B000822
:10409000155C00083B4100083B4100083B4100081B
:1040A0003B4100083B4100083B4100083B41000800
:1040B000295800083B4100083B4100083B410008EB
:1040C0003B4100083B4100083B4100083B410008E0
:1040D0003B4100083B410008615900083B41000892
:1040E0003B4100083B4100083B410008DFF80CD091
:1040F00000F04CF800480047DDA00008A82B002085
:10410000EFF30980704780F309887047EFF3088068
:10411000704780F30888704740BA7047C0BA70474C
:104120000648804706480047FEE7FEE7FEE7FEE751
:10413000FEE7FEE7FEE7FEE7FEE7FEE7A957000819
:10414000ED40000840EA01039B0703D009E008C9DD
:10415000121F08C0042AFAD203E011F8013B00F84C
:10416000013B521EF9D27047D2B201E000F8012B98
:10417000491EFBD270470022F6E710B513460A46E7
:1041800004461946FFF7F0FF204610BD064C074DC8
:1041900006E0E06840F0010394E807009847103417
:1041A000AC42F6D3FFF7A6FF9CB10008BCB10008F3
:1041B00070B58C1810F8015B15F0070301D110F8E9
:1041C000013B2A1106D110F8012B03E010F8016B16
:1041D00001F8016B5B1EF9D12B0705D40023521E99
:1041E0000DD401F8013BFAE710F8013BCB1A921C01
:1041F00003E013F8015B01F8015B521EF9D5A142FF
:10420000D8D3002070BDFEE7C1B2000A40EA012009
:10421000704700002DE9F041184E194F194C1A4D06
:1042200026E000BF47F6FF702060288800F00F01ED
:1042300007EB81003170D0F8002C92B2130408D53E
:10424000D0F8002C40F68F731A40C0F8002C0F48AD
:1042500009E012060CD5D0F8002C48F60F731A406E
:10426000C0F8002C0A4800EB810050F8040C80478D
:10427000206828800004D5D4BDE8F081441A0020CD
:1042800000500040445C0040A41000208810002032
:104290006C1000202DE9F84F0020ADF80000DFF889
:1042A00034A14BF6BF7648F280074A4D4A4C40F69F
:1042B0008F7848F60F7BDFF824910AF1440A31E049
:1042C0000888474A10F00F00107034D0454901EBC0
:1042D0008001D1F8002CADF80020BDF800201204B8
:1042E0000BD5D1F8002C02EA0802C1F8002C3E4997
:1042F00001EB800050F8040C8047BDF80000000678
:1043000010D537483749007801EB8001D1F8002CEF
:1043100002EA0B02C1F8002C344901EB800050F88E
:10432000040C8047DAF800004946A9F800000004B0
:10433000C6D4BDE8F88F28682080208800F03000BF
:104340006080208800F4405020802868304080F44D
:10435000005080F02000384328600888C006286894
:1043600015D400EA0B00286000F068FC26E02188E4
:10437000890401D580F400506188C90626D461887B
:10438000890601D580F0200038432860D1E7ADF8D8
:104390000000BDF80000000506D5286800EA080006
:1043A000286001F003F809E0BDF800000004B9D569
:1043B000286800EA0800286000F064FD2868218869
:1043C0003040C904D3D580F48050D0E780F010008D
:1043D000D5E70000005C0040561A0020A410002021
:1043E000441A002000500040881000206C1000206B
:1043F000810008480844D0F8001C490409D5D0F8C9
:10440000001C48F68F7211404CF280021143C0F834
:10441000001C704700500040810008480844D0F854
:10442000001C490609D5D0F8001C48F68F721140CF
:1044300048F2C0021143C0F8001C70470050004011
:10444000810006480144D1F8000C48F68F62104004
:1044500048F280021043C1F8000C70470050004041
:104460002DE9F047DFF89480254F4FF03009D8F858
:10447000001001F11005088A0E7A08B9042E04D044
:10448000AC88A04215D8042614E01E480178012902
:1044900003D00726102038802BE01B4A0021126829
:1044A0001A4B120403EBD2325160A7F8009001704E
:1044B0001FE00226844200D90446A96820468847A6
:1044C0008246002000F0D8FA01462246504601F00C
:1044D000EDFB2146002000F0C3FE2888001B288049
:1044E000688820446880A7F8009009494FF440503C
:1044F0000880D8F800000672BDE8F087481A00204E
:10450000581A0020401A0020505C00400060004013
:10451000561A00202DE9F047224EDFF88C80302714
:10452000356835F8100FA968A9B100B3AC8884428A
:1045300000D904462046884781462888001B2880E9
:10454000688820446880002000F076FA0146224600
:10455000484600F0BBFC288848B114494FF440504D
:1045600008800021084600F07BFEA8F8007028882B
:10457000A988884201D3032001E020B105203168D9
:104580000872BDE8F08731680620087208490020EB
:104590000968084A090402EBD1314860A8F80070A4
:1045A000EFE70000481A0020581A0020561A002091
:1045B000505C004000600040F8B55F4C5F4D09263C
:1045C0002068002729684278062A05D0CAB1082A3F
:1045D00051D00A2A54D06FE0027852066CD180780C
:1045E000012806D0022806D0062806D0032806D0C7
:1045F00062E0C96958E0096A56E0896A54E0496A8C
:1046000052E04288B2BBC288022A55D102798ABBE5
:104610000278530601D1838833B102F07F02012A68
:1046200004D0022A0CD047E045493DE08A69407930
:1046300000219047F0B92068807A0028F4D13BE04F
:10464000417901F00F0001F070020B063D4901EBCA
:104650008001D1F8001C03D5C1F30111090102E06A
:10466000C1F301310903384B1B78834224D90AB9BD
:104670000029D9D120E0007840061DD1334913E04C
:10468000027802F07F02012A16D1827AA2B1428812
:1046900092B9027982B9C288012A0DD18A6940791A
:1046A0000021904740B92A4931B120684782816191
:1046B00000208847002006E02968206809694078C2
:1046C0008847032813D021680A8AA2F57F43FF3B5D
:1046D0000BD002280ED06AB10878000626D5C8880B
:1046E000009082420AD9088218E00E72F8BD206854
:1046F0000672F8BD4FF008000872F8BD0ED22868A7
:10470000144B90F83000824201D21F7006E0B2FBD9
:10471000F0F400FB142008B901201870286890F804
:1047200030008882BDE8F840FFF79ABE0320087287
:10473000094900030880F8BD481A00204C1A0020DF
:104740007D55000800500040201900201155000838
:1047500055550008401A0020561A0020704701B530
:10476000009801E0401E00900028FBD108BD01B573
:1047700081B0762204E000920098411E0091FBD2A5
:104780000198411E0191F6D20CBD000001490120A3
:10479000087070470010002000F0CEB901F0C6BDCF
:1047A000704704F057BA000010B50649052001F023
:1047B00043FA81B2034804F07BFABDE810400520BB
:1047C00000F02CBD701A002010B501F067FDBDE8A7
:1047D000104005F0F7BC000010B5012000F01CF8F7
:1047E00000280ED007480268012142B10022026071
:1047F00005480160BDE81040012000F007B80160E5
:10480000F6E710BDEC190020F019002001490860FE
:104810007047000014040140064A01460020126857
:10482000044B0A4014331B680B4202D0002A00D00C
:1048300001207047000401400B4B48F68F7203EBD8
:10484000800001290AD0022907D1D0F8001C1140AC
:104850004CF280021143C0F8001C7047D0F8001CD5
:10486000114048F2C002F5E70050004008B50121B0
:104870004FF4FE7000F086FB4FF6FF70ADF80000BD
:1048800000208DF8030069460B4800F059F869468E
:104890000A4800F055F86946094800F051F86946A1
:1048A000084800F04DF86946074800F049F86946A5
:1048B000064800F045F808BD000C0140001001401A
:1048C0000014014000180140001C0140002001407C
:1048D00038B501211C2000F055FB4FF48040ADF8A5
:1048E000000010208DF803000220124C8DF8020009
:1048F0006946204600F024F84FF40040ADF800006F
:104900006946204600F01CF82024ADF800406946B6
:10491000094800F015F8E500ADF800506946074871
:1049200000F00EF8044814300460044810300560AC
:1049300038BD000000100140000C0140000801409B
:10494000F0B5CA78002502F00F03D20601D58A78A7
:1049500013430A784FF00F0E12F0FF0F4FF00102D1
:104960001CD004680F8802FA05F63740B74211D10F
:104970004FEA850C0EFA0CF724EA070703FA0CF449
:104980003C43CF78282F02D0482F02D002E0466166
:1049900000E006616D1C082DE4D304600C88FF2C38
:1049A0001ED944685FF0000606F1080702FA07F511
:1049B0000F882F40AF420FD14FEA860C0EFA0CF74A
:1049C000BC4303FA0CF73C43CF78282F00D1456154
:1049D000CF78482F00D10561761C082EE4D34460BF
:1049E000F0BD0000034901EB8000D0F8000C80B25C
:1049F00070470000005000400549096889B201EB8A
:104A0000C000044901EB40008088C0F309007047F2
:104A1000505C0040006000400549096889B201EB24
:104A2000C000044901EB40008089C0F309007047D1
:104A3000505C0040006000400549096889B201EB04
:104A4000C000044901EB4000008980B270470000BB
:104A5000505C0040006000400549096889B201EBE4
:104A6000C000044901EB40008089C0F30900704791
:104A7000505C0040006000400449096889B201EBC5
:104A8000C000034931F8100080B27047505C00400C
:104A9000006000402DE9F0411C484FF000660168BD
:104AA000001D0568001D00680C181949542001F10B
:104AB000100788700020C8703068C2B2542A15D020
:104AC00006220020091D00F0E7F828460822394692
:104AD00000F0E2F82046082207F1100100F0DCF8AF
:104AE0000620801C5028FCDBBDE8F081000A06226D
:104AF000091D00F0D1F802223946706800F0CCF8A8
:104B00000349082214312046E8E70000E8F7FF1FB8
:104B10001C100020FEE70000064810B502210170BD
:104B2000202141700222FA21002000F0D9F8022051
:104B300010BD0000D824002010B50449012001F068
:104B40007BF803490120086010BD0000D81A00203E
:104B50009C1900200021C278001D11E0412A0DD1CE
:104B600010F8011B10F8012B42EA012210F8021B79
:104B700041EA02210A0210F8011C114310F8012B2E
:104B8000002AEBD106480270064A914205D0064A37
:104B90001160064A01211160017001207047000078
:104BA000D824002000400008041000200810002035
:104BB000012080F3138805480168054A01F4E0618B
:104BC00011430160BFF34F8FFEE700000CED00E0E2
:104BD0000400FA0501480068704700009C19002095
:104BE000134910B50020086012480078612804D0ED
:104BF000682806D0692811D117E00E48FFF7AAFFF0
:104C000002E00C48FFF788FF021E07DD0A498120F9
:104C100001F024F83021012000F030FBBDE8104005
:104C20004FF44051012000F0E1BAFFF7C1FF00004E
:104C30009C190020D81A0020D824002010B5134C4D
:104C40002068017A022904D0042902D0062905D05F
:104C500015E0FFF705FC2068007A11E0417805298E
:104C600009D10178490606D1C07800F0EFF908486B
:104C70000068006A8047074800688068804708200D
:104C800021680872BDE8104000F032B9481A0020CF
:104C9000501A00204C1A002030B500231D460EE0AB
:104CA00000F00F040A2C01D2303400E0373401F850
:104CB000134001EB430400095B1C6570DBB29342B7
:104CC000EED330BD10B54168044CA160E1600068CE
:104CD000FFF71FFAE068BDE810400047041000200D
:104CE00072B60448416081604FF47A714A43C260F1
:104CF00062B67047001A00200B480C4A4FF400417E
:104D0000C3686BB15B1EC36083685B1E836006D1A2
:104D10004368836003781BB1116100210170704703
:104D200051610121FAE70000001A00200010014043
:104D3000FEE770477047000070B50F23C478017814
:104D40000122F4B1144C2468457804F4E064C4F5FD
:104D5000E064240AC4F10406E3408478B5401C40B2
:104D60002C4301F1E021230181F80034007800F0A8
:104D70001F018A404009800000F1E020C0F80021B6
:104D800070BD01F01F0082404809800000F1E02062
:104D9000C0F8802170BD00000CED00E0024908431E
:104DA00002490860704700000000FA050CED00E0C1
:104DB00070B52F4D2868017844784A0606D001F076
:104DC0007F00012828D002282BD035E0092C06D0FE
:104DD000052C07D0032C0ED0012C14D02CE000F0B1
:104DE00017FC28E0C1787F292ED8817861BB8188A3
:104DF00051BB807A27E0C17801291DD18088D8B9BC
:104E000000F022FC17E0C178012915D1818899B9F9
:104E1000407A80060AD40FE00B2C0DD100F06AFC1A
:104E200009E0012C02D0032C03D005E000F0F2FAD7
:104E300001E000F01BFC58B10E49204609684969A1
:104E40008847032802D018B108200DE009200BE0A4
:104E5000094A062000211268084B120403EBD232E3
:104E60005160074A302111802968087270BD000026
:104E7000481A00204C1A0020505C0040006000409E
:104E8000581A002010B50F4C2068007A022811D063
:104E900004280FD0032804D0052802D0072805D005
:104EA00008E0FFF737FB2068007A04E00648006856
:104EB000C0688047082021680872BDE8104000F0F3
:104EC00017B80000481A00204C1A0020064B521C4C
:104ED000520803EB410105D031F8043B20F8023BB6
:104EE000521EF9D17047000000600040704700007A
:104EF0000C4810B590F83010002000F057F90A481F
:104F00000068007A082802D0092809D006E007497D
:104F10004FF480500880064910200880002010BD02
:104F2000012010BDBC100020481A0020561A002095
:104F3000581A00200949202008600949C00008606B
:104F40000848012101600021074A0160031D196022
:104F50004FF4E0511180016000207047100C0140B7
:104F600014080140405C0040541A0020044A002903
:104F7000D16901D0014300E08143D1617047000055
:104F800000100240044A0029916901D0014300E069
:104F900081439161704700000010024030B51F4905
:104FA0004A6812F00C031E4A03D0042B01D0082BD0
:104FB00021D002604A680F231A4C03EA1212A35C44
:104FC0000268DA4042604B68072505EA1323E35C78
:104FD00022FA03F383604B6805EAD323E35CDA40EB
:104FE000C2604968032303EA9131231F595CB2FB75
:104FF000F1F1016130BD4A684B6802F470124FF064
:10500000020413F4803F04EB924202D04B689B03EE
:1050100001D5054B00E0024B5A43CAE7001002409D
:1050200000127A00301A002000093D000149C1F841
:10503000D80070470000424270470000024920F04B
:105040000700086070470000505C0040F0B50E4952
:105050000E4D48F68F770B78002148F2800C0BE05C
:10506000CEB205EB8604D4F8002C3A40324342EA33
:105070000C02C4F8002C491C9942F1D3044940F0B9
:1050800080000860F0BD00002019002000500040A2
:105090004C5C004030B521F0010409490B6822F056
:1050A00001029BB203EBC0035D00064BEC500968A4
:1050B00089B201EBC00003EB4000826030BD00000C
:1050C000505C0040006000402DE9F043254D01296F
:1050D00012D002290ED1296889B201EBC0014B0020
:1050E00021490B445A602B689BB203EBC00001EBD3
:1050F0004000C260BDE8F08329681B4B89B201EB18
:10510000C0011B1D03EB410C530951085E1E4C1CD2
:105110004FF400493E2A07D91F465FEAC26800D112
:10512000B7B249EA872705E00F465FEAC27800D0A8
:105130002746BF02CCF800702D68ADB205EBC00069
:10514000094D0C3505EB40003E2A05D9D10600D1AA
:10515000B3B249EA832103E0D20700D02146890295
:105160000160C7E7505C00400060004081000648D5
:105170000144D1F8000C48F68F72104048F28012BA
:105180001043C1F8000C704700500040054A21F060
:105190000101126892B202EBC000034A02EB400028
:1051A00081607047505C0040006000400D4A12680A
:1051B0003E2992B202EBC0000B4A02EB400209D931
:1051C0004809C90601D1401E80B24FF4004141EAAE
:1051D000802004E04808C90700D0401C800210600D
:1051E00070470000505C00400C60004082000A489C
:1051F0000244D2F8000C4BF68F731840CB0401D553
:1052000080F48050890401D580F4005048F2800178
:105210000843C2F8000C7047005000408100074866
:105220000144D1F8000C4BF68F72104080F44050CE
:1052300048F280021043C1F8000C70470050004053
:10524000054A21F00101126892B202EBC000034A44
:1052500042F8101070470000505C004000600040B1
:10526000044A126892B202EBC000034A02EB40000B
:1052700041607047505C00400060004082000A4876
:105280000244D2F8000C48F6BF731840CB0601D593
:1052900080F01000890601D580F0200048F28001DE
:1052A0000843C2F8000C70470050004082000548D7
:1052B0000244D2F8000C48F68F1318400843C2F895
:1052C000000C7047005000400CB5002126480191A9
:1052D0000091026842F4803202604FF4A0630268D9
:1052E00002F400320092019A521C0192009A12B903
:1052F000019A9A42F3D10268920333D501210091B9
:105300001A490A6842F010020A600A6822F0030291
:105310000A600A6842F002020A604168416041681E
:105320004160416841F480614160416821F47C1131
:105330004160416841F4E8114160016841F08071C9
:10534000016001688901FCD5416821F003014160D9
:10535000416841F0020141604168C1F381010229C5
:10536000FAD10CBD00910CBD00100240002002409B
:1053700010B501210807FFF7F9FDFFF777FAFFF7EE
:10538000A7FA03F045FC03F0D1FB02494FF480403B
:10539000086110BD0010014010B50020FFF746FE67
:1053A0000121BDE81040C805FFF7E0BD70B5164803
:1053B0000068174D0004C10B14480144098989B2E3
:1053C00000EB41042868017A09290FD02178017087
:1053D00061784170A088FEF717FF2968488020890E
:1053E000FEF712FF29688880A089C88028680121FB
:1053F0000172C08828B1FFF7DFF8BDE87040FFF701
:1054000077BDFFF7D5FCF8E7505C00400060004036
:10541000481A00202DE9F04138480068017811F061
:105420007F0102D0022905D066E0417A01F0DF0158
:1054300041724EE0418800295ED10179F1BB41798A
:10544000304D21F080040A0605EB84022C4BD2F883
:10545000002C03D5C2F30112120102E0C2F30132A3
:1054600012031E782346A64246D93AB3807A28B35F
:1054700008064FEA84000ED52844D0F8000CC0F38B
:105480000110012821D11846FEF7C6FF2046302121
:10549000FFF7F4FE19E04619D6F8000CC0F301300E
:1054A000012812D14BF68F7748F28008A4B1184634
:1054B000FEF79EFFD6F8000C384000E01CE080F4B8
:1054C000405040EA0800C6F8000C0F4800684069E8
:1054D00080470020BDE8F0810C4890F83010002093
:1054E000FFF764FED5F8000C384080F4405040EAE5
:1054F0000800C5F8000CE8E70220EBE7481A002096
:105500002019002000500040501A0020BC1000203C
:1055100010B5074C30B10748006800688047206824
:105520000A3010BD216801200882002010BD000053
:10553000481A0020501A0020054A13685A8A10B1F0
:105540000868104470478888801A188200207047C5
:10555000481A002010B5074C30B107480068806831
:10556000804720680C3010BD21680120088200208F
:1055700010BD0000481A0020501A0020204910B524
:10558000096860B11F48002202800A7853060AD0D9
:1055900002F07F02012A16D0022A16D001E0022072
:1055A0000882002010BD497A8A06027802D542F0AE
:1055B000020201E002F0FD0249060270D1B211D4EC
:1055C00001F0FE0110E00F4810BD4A7911071306E3
:1055D0000D4A02EB9161D1F8001C07D5C1F301110E
:1055E00006E0017841F00101017003E0C1F30131EF
:1055F0000129F6D00548006800698047E3E700000C
:10560000481A0020421A002000500040501A002082
:105610000A4810B500680A4AC1785278914203D806
:1056200082780AB982880AB1022010BD81720548C9
:10563000006840688047002010BD0000481A002024
:1056400020190020501A0020064810B50068417A41
:1056500041F02001417204480068C0698047002081
:1056600010BD0000481A0020501A002070B51D48D7
:105670001D4D0368597921F0800005EB80000C0670
:10568000D0F8004C21F0800203D5C4F301142401AA
:1056900002E0C4F301342403144D2D78954210D94F
:1056A0005A8872B96CB19A7A5AB10906D0F8001CBE
:1056B00048F2800207D548F6BF73194081F0100107
:1056C00006E0022070BD4BF68F73194081F48051C3
:1056D0001143C0F8001C064800688069804700201C
:1056E00070BD0000481A0020005000402019002022
:1056F000501A002010B50E4C0E4A20681268C1786E
:1057000092694079904721688A7A22B118B908795C
:1057100008B9887808B1022010BD07480068C06841
:10572000804720684179C172C1780173002010BDA3
:10573000481A00204C1A0020501A00204FF0E02197
:105740000428086903D020F004000861704740F085
:105750000400FAE7104910B5086898B10F480268CC
:105760001AB10168491E016003E064220260002250
:105770000A6002680A494FF40040322A01D24861A7
:1057800000E00861FFF7B8FA06480168002902D076
:105790000168491E016010BD18100020141000207F
:1057A00000100140E81900200F4810B5016841F0D1
:1057B0000101016041680D4A1140416001680C4AD5
:1057C00011400160016821F480210160416821F4E9
:1057D000FE0141604FF41F018160FFF775FD06492E
:1057E0000448086010BD0000001002400000FFF8EF
:1057F000FFFFF6FE0040000808ED00E038B509485C
:10580000002480F8144D400DFFF7C8FA25208DF8CC
:10581000000001208DF802008DF803406846FFF774
:105820008BFA38BD0FE000E010B501218C0720464F
:1058300000F023F828B10121204600F011F804F00F
:10584000FDFC0221204600F018F8002807D00221B4
:10585000204600F005F8BDE8104004F0EFBC10BD94
:10586000C943018270470029018802D041F001013B
:1058700001E021F001010180704702460020138AF7
:1058800092890B4202EA010202D0002A00D00120D4
:105890007047002A828901D00A4300E08A4382814E
:1058A0007047000030B502881B4B1C4C98420DD04D
:1058B000A0420BD0B0F1804F08D0194DA84205D0BE
:1058C000184DA84202D0184DA84203D122F070050D
:1058D0004A882A43154DA84206D0154DA84203D048
:1058E00022F44075CA882A4302808A8882850A8801
:1058F000028598420AD0A04208D00E4A904205D0B4
:105900000D4A904202D00D4A904201D1097A018697
:105910000121818230BD0000002C01400034014093
:105920000004004000080040000C0040001000404F
:105930000014004000400140004401400048014084
:10594000810006480144D1F8000C48F68F721040DF
:1059500048F2C0021043C1F8000C704700500040EC
:1059600010B50A4C40F22551204600F037F808B136
:1059700003F05AF90821204600F029F8002804D045
:105980002046BDE8104000F0B7B810BD004400400C
:1059900010B5038A4FF2FF0213400A884C88224355
:1059A0008C88C9880C4322431A43028210BD00210F
:1059B000018041808180C18070470029818902D0A7
:1059C00041F4005101E021F4005181817047024609
:1059D000002012880A4200D00120704730B501F043
:1059E0001F0201240025C1F3421304FA02F2012B25
:1059F0000FD0022B0FD0838A4FEA11210088134267
:105A000004FA01F400EA040001D000B1012528469F
:105A100030BD8389F0E7038AEEE710B5C1F3421386
:105A200001F01F040121A140012B07D0022B07D058
:105A30001430002A026805D00A4304E00C30F8E76D
:105A40001030F6E78A43026010BD000030B504460E
:105A5000008A85B00D464CF6FF710840E988014385
:105A60002182A1894EF6F3100140A8882A891043AB
:105A70006A890A431043A081A08A4FF6FF4108407B
:105A8000A9890143A1826846FFF788FA1948844230
:105A900001D1039800E00298A189090400EBC0013C
:105AA00001EB0010296801D5490000E08900B0FB36
:105AB000F1F06422B0FBF2F109010B096FF0180557
:105AC0006B4300EB8300A3891D044FF0320306D51E
:105AD00003EBC000B0FBF2F000F0070005E003EBC1
:105AE0000010B0FBF2F000F00F000843208105B079
:105AF00030BD0000003801408088C0F308007047C6
:105B0000C1F30801818070474FF4165101600021F4
:105B10008180C18001810C22428181817047FEF722
:105B200079BB000006480549022201600A72064A54
:105B30000449C0E9011208680047000088270020D6
:105B4000481A0020BC1000202419002038B54FF45A
:105B5000C060FFF723F914208DF8000001248DF8B0
:105B600001408DF802408DF803406846FFF7E4F8E5
:105B700013208DF800008DF8014000208DF8020000
:105B80008DF803406846FFF7D7F838BD38B54FF4B5
:105B9000C060FFF703F914208DF8000001248DF890
:105BA00001408DF8024000258DF803506846FFF74C
:105BB000C3F813208DF800008DF801408DF80250D5
:105BC0008DF803506846FFF7B7F838BD70B50D4D36
:105BD00028680D4C208020880C4E31880840000435
:105BE00001D5FEF757FB208831880840400507D5CE
:105BF0004FF6FF30286006484068BDE87040004717
:105C000070BD0000445C0040A4100020541A002025
:105C1000BC100020FFF7DABF0549002008600549E5
:105C20004FF4044008800249091F086000207047B3
:105C3000445C0040541A002070B500F07F060D4609
:105C40003046FEF709FF04463046FEF7F5FE0146F2
:105C500022462846FFF73AF9204670BD70B500F09D
:105C60007F0514460E462846FEF706FF0146A2B2FF
:105C7000304600F01BF8A1B22846FFF7F1FA0020E9
:105C800070BD10B500214FF08050FFF76FF9002173
:105C90004FF40000FFF76AF9FEF7E8FDFFF776FF23
:105CA000BDE81040FFF7AABDFEE70000094B10B5A4
:105CB000521C520803EB41010AD000BF10F8013B0F
:105CC000521E10F8014B43EA042321F8043BF5D19E
:105CD00010BD00000060004002E008C8121F08C1AB
:105CE000002AFAD170477047002001E001C1121F5D
:105CF000002AFBD1704700000246002004E000BFEC
:105D000012F8013B1844C0B2491EF9D27047000096
:105D1000154910B5002209681346CC2804D0212863
:105D200009D020280ED01DE04B8210488861002049
:105D300000F04EF814E0087800F07F00212811D11F
:105D40000B4A08E0087800F07F00212800D1094ABA
:105D5000094C202020702AB18A614B820020904794
:105D6000002010BD022010BD481A0020D15D00089F
:105D7000B15F0008CD5F0008A81000200149FFF7BF
:105D8000DBBB0000B41000200149FFF7D5BB0000C9
:105D9000F01000201CB5044AD2E90012CDE900122F
:105DA0006946FFF7C9FB1CBD70B1000806490968C8
:105DB000C978052903D9EE2901D000207047034A8C
:105DC00002EBC101FFF7B8BB481A002020110020E8
:105DD000064909688988090A052904DC044A02EB96
:105DE000C101FFF7A9BB002070470000481A00203E
:105DF000F010002009B9002800D0022070470000F0
:105E0000034900200968097801F07F01704700000C
:105E1000481A002070B55748002100688172C1728D
:105E20005549C97941720020FFF708F94FF4007114
:105E30000020FFF73BFA10210020FFF71FFA18217E
:105E40000020FFF7A3F958210020FFF7F9F90020FF
:105E5000FEF7F6FA494C002014F8301FFFF7A6F9B8
:105E60000020FFF7DBF901210846FFF71FFAA02108
:105E70000120FFF78BF9E0210120FFF7E1F9402134
:105E80000120FFF793F94FF4405529460120FFF711
:105E9000ADF920210120FFF7F1F902210846FFF7B3
:105EA00005FA0220FFF762F9E022A0210220FFF7A5
:105EB000F1F8402201210220FFF706F90220FEF747
:105EC00097FA0220FEF7A8FA0220FFF739FD2946CB
:105ED0000220FFF78BF900210220FFF7CFF9E9102C
:105EE0000420FFF7E3F94FF4907631460420FFF7E2
:105EF000A7F900210420FFF779F920210420FFF7FA
:105F0000BDF905210846FFF7D1F94FF4B07105201E
:105F1000FFF73CF931460520FFF792F940210520B3
:105F2000FFF744F929460520FFF760F920210520F5
:105F3000FFF7A4F906210846FFF7B8F94FF480717E
:105F40000620FFF77DF900210620FFF74FF92021F9
:105F50000620FFF793F921780020FFF727F90020AA
:105F6000FFF75CF90020FFF771F805490120086090
:105F700070BD0000481A002084AF0008BC1000204B
:105F80004819002001490420086070474819002082
:105F900010B5054C2078202804D1201D02F0EAFD20
:105FA0000020207010BD0000A810002070470000E5
:105FB00008B1044870470449082009680882002095
:105FC00070470000AC100020481A002008B10448B7
:105FD00070470449082009680882002070470000C3
:105FE000AC100020481A0020034800218170A0F660
:105FF0007C31416070470000542600207047704794
:1060000012010002EF020140BF3210B22002010271
:1060100003010000204810B50068807A012812D0E2
:10602000002838D00520FEF7F7F90420FEF7F4F930
:106030000520FEF7DDF90420FFF782FCBDE81040E3
:106040000520FFF77DBC1549052008600620FEF7F6
:10605000E3F90520FEF7E0F90420FEF7DDF905205D
:10606000FEF7C6F90220FEF7C3F90220FEF7D4F9C5
:106070000420FFF765FC0520FFF762FC0220FFF714
:106080005FFC07484FF48041016149004161BDE870
:10609000104002F04BBD10BD481A002048190020E6
:1060A000001001402DE9F047DFF828814A4C08F63E
:1060B0006C3098F80110626AC1F3411798F80250E9
:1060C0000021904708F67C367378042005214FF0B4
:1060D000000906229BB308F103076B0926D0B0EB39
:1060E000551F05D0B1EB551F02D0B2EB551F60D143
:1060F000394900223C31E369012098470122E369D4
:10610000394610469847226A2946832090473148ED
:106110002838406800EB8000C000FEF720FB012219
:106120002D49E3693C311046984742E0E36901227A
:10613000394628469847484686F80D9038E0FFE7EC
:10614000B046B668682306F8013B6B0906F8019B68
:1061500037D0B0EB551F05D0B1EB551F02D0B2EBD5
:10616000551F14D11C4900223C31E3690120984796
:10617000226A2946822090470022E36931460120A5
:1061800098470122144910463C31E3699847032F90
:106190001BD004208519D8F8080046460621FFF7D1
:1061A000ABFD287016206870032F10D00020083037
:1061B0003061626A012109489047BDE8F047FFF766
:1061C00013BF002231462846DFE70820E2E704201B
:1061D000EDE70000D81A00204C19002044260020CA
:1061E000F8B52B4909220878012600F06007A1F6CE
:1061F0007C30002F02D04FF00A0301E04FF006037D
:106200004C68A4EB000407D0C25C4FEA42054FF093
:106210000D0205F1020502E0C55C05F1010502EB86
:106220008502A24231D848601B4E1A4C0020726B86
:10623000214690470FB1093400E0641DB078102862
:1062400007D013491920503908700820B2689047C8
:1062500015E04FF4C85002F07FFEADF8000069462B
:106260001020F3E721462FB1F26840209047083410
:10627000AD1E04E0F26820209047241D6D1E002D05
:10628000F0D1BDE8F840FFF7AFBE8E70F8BD00005A
:1062900054260020DA1A00204C19002070B5224C38
:1062A00000202169002915D00025257300E0401C3D
:1062B00021698142FBD8206968B12069402822D831
:1062C0002269A1688620FFF7C9FC30210620FEF76D
:1062D000D5FF256170BDA16868200870607BA1684A
:1062E0004870607BA16868308870A1681620C8700B
:1062F000A16804228620FFF7B1FCBDE87040302180
:106300000620FEF7BBBFA16840228620FFF7A6FC4F
:1063100030210620FEF7B2FF206940382061A068D6
:106320004030A06070BD00005426002070B50220EF
:10633000FEF758FB4006144D4FF001014FF00200EC
:1063400009D5FEF779FA0220FEF756FBC4B2686859
:106350002246A02108E0FEF76FFA0220FEF75CFB60
:10636000C4B268682246E021FEF7B0FD68682044A8
:1063700068604FF400510220FEF738FFFFF706FC7B
:1063800002490120487070BD542600204C1900209D
:106390002DE9F84F294D2A4FA878ED1C401C4FEAF3
:1063A000D008B878102805D1287800F0FC0002F059
:1063B000D3FD287005EB0803224C13F8010B401C99
:1063C000C60860784FF0000A58B1012029460090B5
:1063D000BD6932464046A84784F80DA0C4F810A015
:1063E00022E0A146A4686820FF2104F8010B01EB1C
:1063F000C60104F801AB504604F8011B29789F2917
:1064000016D029460090BD69234632464046A8472B
:10641000D9F8080034444D46F11CFFF76DFC20709C
:1064200016206070761D2E61BDE8F84FFFF7DCBDC9
:10643000F0063A69000E21469047E9E7D81A002095
:106440004C1900205426002010B5FEF723FB094804
:10645000002400688472FEF76DFDFFF7DDFB07483E
:106460000549C0F870171221A0F874170448046099
:1064700010BD0000481A00209DB000082011002027
:10648000481900202DE9F84F01210C20FEF77AFD74
:106490000220ADF8000010278DF803700320DFF80C
:1064A000ECB08DF8020069465846FEF749FA202004
:1064B000ADF8000069465846FEF742FA7801DFF869
:1064C000D0A0ADF8000069465046FEF739FA012623
:1064D000ADF8006069465846FEF732FA3002ADF872
:1064E000000069465046FEF72BFA8024ADF80040C4
:1064F00069465046FEF724FAADF800406946584612
:10650000FEF71EFA4025ADF8005069465846FEF7E2
:1065100017FAADF8005069465046FEF711FA4FF4ED
:106520000068ADF8008069465046FEF709FA4FF45E
:106530008069ADF8009069465046FEF701FAADF863
:10654000007048208DF8030069465846FEF7F8F9B8
:1065500010490020C1F88401C1F894010E4AC2F824
:10656000A401C1F88061C2F8A0610948103004603C
:10657000064810300460001D0560054814300560B1
:10658000C0F80080C0F80090BDE8F88F0008014016
:10659000000C014000002142008021420148407867
:1065A000704700004C19002070B5C006D2061E4688
:1065B000000E140E049D00F03FFB314620461DB135
:1065C000BDE8704000F07CB9BDE8704000F034B820
:1065D00070B5C006D2061E46000E140E049D00F0D3
:1065E000CFFB314620461DB1BDE8704000F074BAC3
:1065F000BDE8704000F0D2B870B5084C0020C4F877
:106600008401074D04F5C2746868FEF7A8F80120FC
:1066100020606868BDE87040FEF7A1B80000214224
:10662000E019002003480021C0F884110121C0F8BE
:1066300084117047000021422DE9F047544C4FF07F
:10664000000A0E46C70800F00709D046C4F894A116
:10665000C4F884A10125C4F88451C4F89451C4F845
:1066600084A1C4F88451C4F89451C4F884A1C4F836
:106670008451C4F89451C4F884A1C4F88451C4F876
:106680009451C4F88481C4F8845104F5C27400F0B4
:106690002DFC0020C4F8008025603E49DFF8F8801A
:1066A000A4F5C274097889B30022D44614E0082105
:1066B000C4F884C1C4F88451D8F8003040089B065F
:1066C00001D540F08000491E11F0FF01F0D106F81D
:1066D000010B0020521CD2B2BA42E8D3B9F100013A
:1066E00040D000BFC4F884C1C4F88451D8F8002059
:1066F0004008920601D540F08000491E11F0FF01CC
:10670000F0D1C9F10801C84030702BE0FFE700214B
:10671000534616E05FF00802C4F88431C4F884518F
:10672000D8F800C040085FEA8C6C01D540F08000CA
:10673000521E12F0FF02EFD106F8010B0020491C97
:10674000C9B2B942E6D30BE05FF00800C4F8843167
:10675000C4F88451401E10F0FF00F7D1491CC9B2A3
:106760000429F1D35646C4F884A1C4F88451C4F86E
:1067700084A1C4F8845104F5C27400F0CDFB2561F6
:106780002660256026602560BDE8F04700F030BA3D
:1067900000002142E0190020080801402DE9F05FC7
:1067A000DFF810B14FEAD00800F0070900200E46CC
:1067B000CBF894010BF5CA74FFF71EFF0125256085
:1067C000FFF71AFF2560FFF717FF2560FFF714FF9B
:1067D0002560FFF711FF00F089FB0024FFF70CFF95
:1067E00035480178354871B30027824612E0082504
:1067F000FFF702FFDAF800006408800601D544F0D4
:1068000080046D1E15F0FF05F2D106F8014B00243F
:106810007F1CFFB24745EAD3B9F1000038D00546E6
:106820004FEA0A07FFF7E8FE38686408800601D5DA
:1068300044F080046D1E15F0FF05F3D1C9F1080086
:10684000C440347024E0FFE70025814612E00827A9
:10685000FFF7D2FED9F800006408800601D544F0A5
:1068600080047F1E17F0FF07F2D106F8014B0024C9
:106870006D1CEDB24545EAD308E00824FFF7BCFEE5
:10688000641E14F0FF04F9D16D1CEDB2042DF4D395
:10689000FFF7B2FEFFF7B0FE00F03EFB0120CBF8A1
:1068A0009401FFF7A9FEFFF7A7FEBDE8F05F00F037
:1068B000B5B9000000002142E0190020080801409D
:1068C000F0B4C60800F0070581480023C0F89431F1
:1068D000C0F884310122C0F88421C0F89431C0F896
:1068E0008431C0F88421C0F89421C0F88431C0F804
:1068F0008421C0F89421C0F88431C0F88421C0F804
:106900009421C0F88431C0F88421724F00243F786C
:10691000F7BB5BE011F8017B07F0010C7C40C0F88D
:1069200094C17F08C0F88431C0F8842107F0010CBD
:10693000C0F894C17F08C0F88431C0F8842107F002
:10694000010CC0F894C17F08C0F88431C0F88421DC
:1069500007F0010CC0F894C17F08C0F88431C0F87A
:10696000842107F0010CC0F894C17F08C0F884317D
:10697000C0F8842107F0010CC0F894C17F08C0F86A
:106980008431C0F8842107F0010CC0F894C100E004
:106990000AE07F08C0F88431C0F88421C0F89471FF
:1069A000C0F88431C0F88421761EF6B2B2D2E5B3C5
:1069B00009784C40C0F894114908C0F88431C0F8F7
:1069C00084216D1E15F0FF05F4D15FE000254BE03A
:1069D00011F8017B07F0010C7C40C0F894C17F08DE
:1069E000C0F88431C0F8842107F0010CC0F894C1CC
:1069F0007F08C0F88431C0F8842107F0010CC0F88A
:106A000094C17F08C0F88431C0F8842107F0010CDC
:106A1000C0F894C17F08C0F88431C0F8842107F021
:106A2000010CC0F894C17F0800E02FE0C0F8843169
:106A3000C0F8842107F0010CC0F894C17F08C0F8A9
:106A40008431C0F8842107F0010CC0F894C17F089C
:106A5000C0F88431C0F88421C0F89471C0F8843142
:106A6000C0F884216D1CEDB2B542B1D30CE0082111
:106A7000C0F89431C0F88431C0F88421491E11F067
:106A8000FF01F5D16D1CEDB2042DF0D384EA141191
:106A900081EA910181EA5101491CC9B2C0F89411FF
:106AA000C0F88431C0F88421C0F89421C0F8843142
:106AB000C0F88421C0F89421C0F88431C0F8842142
:106AC000C0F88431C0F88421F0BC00F091B8000017
:106AD00000002142E01900202DE9F05FDFF808A155
:106AE0004FF0000B8946C50800F007045F46CAF85E
:106AF00094B10AF5CA76FFF77FFD3760FFF77CFD9A
:106B000001273760FFF778FD3760FFF775FD3760C5
:106B1000FFF772FD35484FF00008007878B921E0A2
:106B200019F8016B5FF0080788EA0608CAF8946153
:106B30007608FFF761FD7F1E17F0FF07F6D16D1E87
:106B4000EDB2EDD29CB399F80050564688EA05089C
:106B5000C6F894516D08FFF74FFD641E14F0FF0452
:106B6000F6D125E0002410E019F8016B5FF008076A
:106B700088EA0608CAF894617608FFF73DFD7F1E93
:106B800017F0FF07F6D1641CE4B2AC42ECD35E46CA
:106B90005746042C0CD20825C7F89461FFF72CFD4A
:106BA0006D1E15F0FF05F7D1641CE4B2F1E7FFE7B5
:106BB00088EA181080EA900080EA5000401CC0B2B9
:106BC000CAF894010AF5CA74FFF716FD012525607D
:106BD000FFF712FD2560FFF70FFDFFF70DFDBDE884
:106BE000F05F00F01BB8000000002142E019002017
:106BF000084810B5006A002200F00701064801238A
:106C000004E000BFC0F88421C0F88431491EC9B235
:106C1000F8D210BDB01A002000002142054810B57E
:106C2000006A00F0070401E0FFF7E6FC641EE4B22E
:106C3000FAD210BDB01A0020F0B4C50800F0070465
:106C40004E480023C0F89431C0F884310122C0F8C6
:106C50008421C0F89431C0F88431C0F88421C0F890
:106C60009431C0F88431C0F88421C0F89421C0F870
:106C70008431C0F88421C0F8942100BFC0F8843169
:106C8000C0F884216D1EEDB249D311F8017B87EA6B
:106C9000171686EA960607F0010C86EA5606C0F833
:106CA00094C17F08C0F88431C0F8842107F0010C3A
:106CB000C0F894C17F08C0F88431C0F8842107F07F
:106CC000010CC0F894C17F08C0F88431C0F8842159
:106CD00007F0010CC0F894C17F08C0F88431C0F8F7
:106CE000842107F0010CC0F894C17F08C0F88431FA
:106CF000C0F8842107F0010CC0F894C17F08C0F8E7
:106D00008431C0F8842107F0010CC0F894C17F08D9
:106D1000C0F88431C0F88421C0F89471AEE794B112
:106D2000097881EA111585EA950585EA550600BFBF
:106D3000C0F894114908C0F88431C0F88421641E59
:106D400014F0FF04F4D1761CF1B2C0F89411C0F82D
:106D50008431C0F88421C0F89421C0F88431C0F88F
:106D60008421C0F89421C0F88431C0F88421C0F88F
:106D70008431C0F88421F0BCFFF73ABF0000214203
:106D80002DE9F05F2E4CC50800270E4600F00708DD
:106D9000C4F8947104F5CA74FFF72EFC2760FFF75E
:106DA0002BFC2760FFF728FC4FF0010B5F46C4F86F
:106DB00000B0FFF721FC2760A4F5CA74FFF71CFCA4
:106DC000A2460FE03478082784EA141080EA900085
:106DD00080EA5009CAF894416408FFF70DFC7F1E51
:106DE000F8D1761C6D1EEDB2ECD2B8F1000F10D0C8
:106DF0003478454684EA141080EA900080EA50090D
:106E00004FEA0A06C6F894416408FFF7F5FB6D1EC9
:106E1000F8D109F10100C0B2CAF894010AF5CA74A8
:106E2000FFF7EAFB5D46C4F800B0FFF7E5FB25601D
:106E3000FFF7E2FBFFF7E0FBBDE8F05FFFF7EEBE18
:106E4000000021422DE9F041124FDDE906560122F2
:106E50001C463A7040B139B10A78D20704D10838DB
:106E6000C0B2491CFFF7E8FE84B1083C35B1287870
:106E7000C00703D1E0B2691CFFF722FD36B12878C4
:106E8000C00703D0E0B2711CFFF7D6FB00203870BA
:106E9000BDE8F081E01900202DE9F041124FDDE955
:106EA000065601221C463A7040B139B10A78D20721
:106EB00004D10838C0B2491CFFF762FF84B1083C16
:106EC00035B12878C00703D1E0B2691CFFF704FE92
:106ED00036B12878C00703D0E0B2711CFFF75EFC22
:106EE00000203870BDE8F081E0190020094908B59C
:106EF000802008602020ADF8000048208DF80300B5
:106F000003208DF80200034869461438FDF718FD88
:106F100008BD000014080140094908B58020086038
:106F20002020ADF8000010208DF8030003208DF81C
:106F30000200034869461038FDF702FD08BD000055
:106F40001008014070B5C006D2061E46000E140E91
:106F5000049D00F0BFFA314620461DB1BDE87040E7
:106F600000F04CB9BDE8704000F03EB870B5C00606
:106F7000D2061E46000E140E049D00F07BFB314627
:106F800020461DB1BDE8704000F0FEB9BDE870407C
:106F900000F0CAB870B500BF00BF0020074CC4F8AD
:106FA0008401074D04F5C2746868FDF7D8FB012021
:106FB00020606868BDE87040FDF7D1BB0000214249
:106FC000E019002000BF00BF00210648C0F884116E
:106FD00000F5C27000BF00BF0121016000BF00BF0B
:106FE00070470000000021422DE9F00300287DD009
:106FF0004B4CC20800F007060020C4F8940104F5C9
:10700000C27400BF00BF206000BF00BF0125256023
:1070100000BF00BF256100BF00BF206000BF00BFF0
:10702000256000BF00BF206100BF00BF206000BF1F
:1070300000BF256000BF00BF206100BF00BF20600F
:1070400000BF00BF2560A4F5C27400BF00BFDFF819
:10705000D4C0814620E00023082042EA06075B08EE
:107060001FB9012801D1C4F8945100BF00BFC4F872
:10707000849100BF00BFC4F8845100BF00BFDCF89A
:1070800000805FEAC86801D543F08003401E10F01D
:10709000FF00E4D101F8013B521ED2B2DBD2FEB1B7
:1070A000002032464B464008012A01D1C4F89451D1
:1070B00000BF00BFC4F8843100BF00BFC4F88451D2
:1070C00000BF00BFDCF80070FF0601D540F0800073
:1070D000521E12F0FF02E6D1C6F10802D04008703D
:1070E000C4F8945104F5C27400BF00E015E000BF7D
:1070F0004846C4F8009000BF00BF256000BF00BF35
:10710000206100BF00BF206000BF00BF256000BF3E
:1071100000BFBDE8F00300F0B3B9BDE8F00370476D
:1071200000002142080801402DE9F05F8846002850
:107130005ED0304DC408002700F00706C5F89471F2
:1071400005F5CA75FFF726FF4FF0010BC5F800B033
:10715000FFF720FF2F60FFF71DFF2F60A5F5CA7511
:10716000FFF718FFAA4619E00027082544EA060998
:107170007F08B9F1000F03D1012D01D1CAF894B1F4
:10718000FFF708FF1C480068C00601D547F08007DC
:107190006D1E15F0FF05EBD108F8017B641EE4B20B
:1071A000E2D2BEB1144F002435466408012D01D14E
:1071B000CAF894B1FFF7EEFE3868C00601D544F076
:1071C00080046D1E15F0FF05EFD1C6F10800C44024
:1071D00088F800405446CAF894B1FFF7DBFE00205F
:1071E000C4F89401FFF7D6FEBDE8F05F00F064B983
:1071F000BDE8F09F0000214208080140F0B40028DB
:107200007DD0C60800F007055D480022C0F8942133
:1072100000F5C27000BF00BF026000BF00BF0123C5
:10722000036000BF00BF036100BF00BF026000BF7A
:1072300000BF036000BF00BF026100BF00BF02606B
:1072400000BF00BF036000BF00BF02614D4CA0F54E
:10725000C2705CE011F8017B00BF00BFC0F8842160
:1072600000F5C27000BF00BF036000BF00BFC4F8DC
:10727000A4717F0804F5D27400BF00BF026000BF94
:1072800000BF036000BF00BF27607F0800BF00BFD2
:10729000026000BF00BF036000BF00BF27607F081F
:1072A00000BF00BF026000BF00BF036000BF00BF9F
:1072B00027607F0800BF00BF026000BF00BF0360FF
:1072C00000BF00BF27607F0800BF00BF026000BF93
:1072D00000BF036000BF00BF27607F0800BF00BF82
:1072E000026000BF00BF036000BF00BF27607F08CF
:1072F00000BF00BF026000BF00BF036000E03DE0D0
:10730000A0F5C27000BF00BF2760A4F5D274761E3E
:10731000F6B29FD28DB109780CE000BF00BFC0F873
:10732000842100BF00BFC0F8843100BF00BFC4F893
:10733000A41149086D1EEDB2EFD2C0F8943100F5EA
:10734000C27000BF00BF026000BF00BF036000BF8B
:1073500000BF036100BF00BF026000BF00BF036049
:1073600000BF00BF026100BF00BF026000BF00BFDE
:10737000036000BF00BFF0BC00F082B8F0BC7047F3
:1073800000002142008021422DE9F05F0F460028D5
:1073900070D0DFF8E4904FF0000BC60800F007054E
:1073A000D846C9F894B109F5CA74FFF7F3FD4FF058
:1073B000010AC4F800A0FFF7EDFDC4F80080FFF754
:1073C000E9FDC4F800802D4C34E000BF17F8018BB4
:1073D000FFF7E0FDC4F8A4814FEA580804F5D27421
:1073E000FFF7D8FDC4F800804FEA5808FFF7D2FD38
:1073F000C4F800804FEA5808FFF7CCFDC4F80080BD
:107400004FEA5808FFF7C6FDC4F800804FEA580855
:10741000FFF7C0FDC4F800804FEA5808FFF7BAFD37
:10742000C4F800804FEA5808FFF7B4FDC4F80080A4
:10743000A4F5D274761EF6B2C8D24DB13E7804E0FF
:10744000FFF7A8FDC4F8A46176086D1EEDB2F7D26F
:107450005546C9F894A109F5CA74FFF79BFD25604C
:10746000FFF798FDC4F800B0FFF794FDBDE8F05FAA
:1074700000F022B8BDE8F09F0000214200802142C8
:107480000B4810B5006A002200F0070109480123EB
:1074900009E000BF00BFC0F8842100BF00BFC0F8F2
:1074A000843100BF00BF491EC9B2F2D210BD000036
:1074B000B01A002000002142054810B5006A00F013
:1074C000070401E0FFF766FD641EE4B2FAD210BDC6
:1074D000B01A0020F0B400287ED0C60800F00705DE
:1074E00062480022C0F8942100F5C27000BF00BFBE
:1074F000026000BF00BF0124046000BF00BF046140
:1075000000BF00BF026000BF00BF046000BF00BF3B
:10751000046100BF00BF026000BF00BF046000BF85
:1075200000BF026100BF00BF026000BF00BF046077
:1075300000BF00BF02614E4BA0F5C2705DE000BF0E
:1075400011F8017B00BF00BFC0F8842100F5C270B4
:1075500000BF00BF046000BF00BFC3F8A4717F0874
:1075600003F5D27300BF00BF026000BF00BF04601C
:1075700000BF00BF1F607F0800BF00BF026000BFE8
:1075800000BF046000BF00BF1F607F0800BF00BFD6
:10759000026000BF00BF046000BF00BF1F607F0823
:1075A00000BF00BF026000BF00BF046000BF00BF9B
:1075B0001F607F0800BF00BF026000BF00BF046003
:1075C00000BF00BF1F607F0800BF00BF026000BF98
:1075D00000BF046000BF00E046E000BF1F607F08FE
:1075E00000BF00BF026000BF00BF0460A0F5C27012
:1075F00000BF00BF1F60A3F5D273761EF6B29FD204
:107600008DB109780CE000BF00BFC0F8842100BF35
:1076100000BFC0F8844100BF00BFC3F8A4114908EF
:107620006D1EEDB2EFD2C0F8944100F5C27000BFFC
:1076300000BF026000BF00BF046000BF00BF046164
:1076400000BF00BF026000BF00BF046000BF00BFFA
:10765000026100BF00BF026000BF00BF046000BF46
:1076600000BFF0BCFFF70CBFF0BC70470000214228
:10767000008021422DE9F05F0F46002874D0DFF82A
:10768000ECA04FF0000BC60800F00705D846CAF87A
:1076900094B10AF5CA74FFF77DFC4FF00109C4F8F4
:1076A0000090FFF777FCC4F80090FFF773FCC4F874
:1076B0000080FFF76FFCC4F800802D4C34E000BF61
:1076C00017F8018BFFF766FCC4F8A4814FEA58084D
:1076D00004F5D274FFF75EFCC4F800804FEA580846
:1076E000FFF758FCC4F800804FEA5808FFF752FC37
:1076F000C4F800804FEA5808FFF74CFCC4F800803B
:107700004FEA5808FFF746FCC4F800804FEA5808D3
:10771000FFF740FCC4F800804FEA5808FFF73AFC36
:10772000C4F80080A4F5D274761EF6B2C8D24DB16A
:107730003E7804E0FFF72EFCC4F8A46176086D1EC5
:10774000EDB2F7D24D46CAF894910AF5CA74FFF724
:1077500021FC2560FFF71EFCC4F800B0FFF71AFCFF
:10776000BDE8F05FFFF7A8BEBDE8F09F0000214232
:107770000080214270B51C46DDE9046518B111B1E5
:107780000AB100F09FFA002C0AD0002E08D0002D7C
:1077900006D02A4631462046BDE8704000F018B8B1
:1077A00070BD70B51C46DDE9046518B111B10AB1B0
:1077B00000F014FC002C0AD0002E08D0002D06D0BA
:1077C0002A4631462046BDE8704000F085B970BDBC
:1077D0002DE9F05F00287DD0C70800F00705BB4801
:1077E0000026AE46C0F8946100F5C27000BF00BF2D
:1077F000066000BF00BF4FF0010CC0F800C000BF22
:1078000000BFC0F810C000BF00BF066000BF00BFCF
:10781000C0F800C000BF00BF066100BF00BF066027
:1078200000BF00BFC0F800C000BF00BF066100BFBE
:1078300000BF066000BF00BFC0F800C0A0F5C27066
:1078400000BF00BFA24B8024B246E146F1E000BF7A
:1078500011F801BB9F4E0BF0010CC6F8A4C100BF8C
:1078600000BFC0F884A100BF00BFC0F8849100BF72
:1078700000BF92F800C04FEA5C0C82F800C0D3F859
:1078800000804FEA5B0B04EAC8084CEA080C82F857
:1078900000C00BF0010CC6F8A4C100BF00BFC0F8C7
:1078A00084A100BF00BFC0F8849100BF00BF92F860
:1078B00000C04FEA5C0C82F800C0D3F800804FEAA9
:1078C0005B0B04EAC8084CEA080C82F800C00BF015
:1078D000010C00E0F7E0C6F8A4C100BF00BFC0F88B
:1078E00084A100BF00BFC0F8849100BF00BF92F820
:1078F00000C04FEA5C0C82F800C0D3F800804FEA69
:107900005B0B04EAC8084CEA080C82F800C00BF0D4
:10791000010CC6F8A4C100BF00BFC0F884A100BF1D
:1079200000BFC0F8849100BF00BF92F800C04FEACA
:107930005C0C82F800C0D3F800804FEA5B0B04EACD
:10794000C8084CEA080C82F800C00BF0010CC6F81D
:10795000A4C100BF00BFC0F884A100BF00BFC0F831
:10796000849100BF00BF92F800C04FEA5C0C82F81F
:1079700000C0D3F800804FEA5B0B04EAC8084CEA69
:10798000080C82F800C00BF0010CC6F8A4C100BFBF
:1079900000BFC0F884A100BF00BFC0F8849100BF41
:1079A00000BF92F800C04FEA5C0C82F800C0D3F828
:1079B000008004EAC8084CEA080C82F800C04FEACC
:1079C0005B0C0CF00108C6F8A48100BF00BFC0F832
:1079D00084A100BF00BFC0F8849100BF00BF16782B
:1079E00076081670D3F8008004EAC80846EA08064C
:1079F00016704FEA5C0657EA050C01D1C0F8949165
:107A0000DFF8D0C0CCF8A46100BF00BFC0F884A1EB
:107A100000BF00BFC0F8849100BF00BF1678760891
:107A20001670D3F800C004EACC0C46EA0C0602F843
:107A3000016B7F1EFFB2BFF40BAF45B309784E4612
:107A4000DFF890801BE00DB9C0F8946101F00107E8
:107A5000C8F8A47100BF00BFC0F884A100BF00BF78
:107A6000C0F8846100BF00BF17787F081770D3F893
:107A700000C0490804EACC0C47EA0C0717706D1ED9
:107A8000EDB2E0D21178CEF10803D9401170494629
:107A9000C0F8949100F5C27000BF00BF5246C0F814
:107AA00000A000BF00BF016000BF00BF026100BFB7
:107AB00000BF026000BF00BF016000BF00BFBDE8A3
:107AC000F05FFFF7DDBCBDE8F09F00000000214241
:107AD00008080140008021422DE9F84F14460F4666
:107AE00000287DD0DFF8D08100F007054FF00009B5
:107AF0000095C608C8F89491FFF74CFA0120C8F821
:107B00009401FFF747FAC8F89491FFF743FAC8F8D1
:107B10009491FFF73FFADFF8A481DFF8A4914FF0CA
:107B2000800A8FE017F801BB0BF00101C8F8A4111F
:107B3000FFF730FA207840082070D9F800204FEA8B
:107B40005B0B0AEAC201084320700BF00101C8F880
:107B5000A411FFF71FFA207840082070D9F8002000
:107B60004FEA5B0B0AEAC201084320700BF00101E7
:107B7000C8F8A411FFF70EFA207840082070D9F851
:107B800000204FEA5B0B0AEAC201084320700BF0A9
:107B90000101C8F8A411FFF7FDF920784008207012
:107BA000D9F800204FEA5B0B0AEAC20108432070B3
:107BB0000BF00101C8F8A411FFF7ECF92078400898
:107BC0002070D9F800204FEA5B0B0AEAC201084393
:107BD00020700BF00101C8F8A411FFF7DBF900E0F9
:107BE00067E0207840082070D9F800204FEA5B0B4E
:107BF0000AEAC201084320700BF00101C8F8A41181
:107C0000FFF7C8F9207840082070D9F800200AEA68
:107C1000C201084320704FEA5B0056EA050103D118
:107C2000254A0121C2F89411C8F8A401FFF7B2F95E
:107C3000207840082070D9F800200AEAC2010843E1
:107C400004F8010B761EF6B2BFF46CAF0DB33E78AC
:107C5000DFF864B0574613E015B90120CBF8940162
:107C600006F00101C8F8A411FFF794F92078400844
:107C70002070D9F8001007EAC10108432070760887
:107C80006D1EEDB2E8D200992078C1F10801C8401C
:107C90002070094C0120C4F8940104F5CA74FFF760
:107CA00079F900202060FFF775F9BDE8F84FFFF77C
:107CB00003BCBDE8F88F0000000021420080214293
:107CC000080801402DE9F05F00287DD0C70800F0CA
:107CD0000705BF480026AE46C0F8946100F5C270A3
:107CE00000BF00BF066000BF00BF4FF0010CC0F82E
:107CF00000C000BF00BFC0F810C000BF00BF0660DA
:107D000000BF00BFC0F800C000BF00BFC0F810C077
:107D100000BF00BF066000BF00BFC0F800C000BFCA
:107D200000BF066100BF00BF066000BF00BFC0F813
:107D300000C000BF00BF066100BF00BF066000BFFB
:107D400000BFC0F800C0A0F5C27000BF00BFA14BCB
:107D50008024B246E146EFE011F801BB9E4E0BF0E5
:107D6000010CC6F8A4C100BF00BFC0F884A100BFC9
:107D700000BFC0F8849100BF00BF92F800C04FEA76
:107D80005C0C82F800C0D3F800804FEA5B0B04EA79
:107D9000C8084CEA080C82F800C00BF0010CC6F8C9
:107DA000A4C100BF00BFC0F884A100BF00BFC0F8DD
:107DB000849100BF00BF92F800C04FEA5C0C82F8CB
:107DC00000C0D3F8008000E000E104EAC8084CEAF3
:107DD000080C82F800C04FEA5B0B0BF0010CC6F8F0
:107DE000A4C100BF00BFC0F884A100BF00BFC0F89D
:107DF000849100BF00BF92F800C04FEA5C0C82F88B
:107E000000C0D3F800804FEA5B0B04EAC8084CEAD4
:107E1000080C82F800C00BF0010CC6F8A4C100BF2A
:107E200000BFC0F884A100BF00BFC0F8849100BFAC
:107E300000BF92F800C04FEA5C0C82F800C0D3F893
:107E400000804FEA5B0B04EAC8084CEA080C82F891
:107E500000C00BF0010CC6F8A4C100BF00BFC0F801
:107E600084A100BF00BFC0F8849100BF00BF92F89A
:107E700000C04FEA5C0C82F800C0D3F800804FEAE3
:107E80005B0B04EAC8084CEA080C82F800C00BF04F
:107E9000010CC6F8A4C100BF00BFC0F884A100BF98
:107EA00000BFC0F8849100BF00BF92F800C04FEA45
:107EB0005C0C82F800C0D3F8008004EAC8084CEAE1
:107EC000080C82F800C04FEA5B0C0CF00108C6F801
:107ED000A48100BF00BFC0F884A100BF00BFC0F8EC
:107EE000849100BF00BF167876081670D3F8008022
:107EF00004EAC80846EA080616704FEA5C0657EA24
:107F0000050C01D1C0F89491DFF8CCC0CCF8A46185
:107F100000BF00BFC0F884A100BF00BFC0F88491BB
:107F200000BF00BF167876081670D3F800C004EAC8
:107F3000CC0C46EA0C0616707F1EFFB2BFF40CAFE5
:107F400045B309784E46DFF890801BE00DB9C0F8C4
:107F5000946101F00107C8F8A47100BF00BFC0F828
:107F600084A100BF00BFC0F8846100BF00BF1778C4
:107F70007F081770D3F800C0490804EACC0C47EA20
:107F80000C0717706D1EEDB2E0D21378CEF1080128
:107F9000CB4013704946C0F8949100F5C27000BF01
:107FA00000BF5246C0F800A000BF00BF016000BF84
:107FB00000BF026100BF00BF026000BF00BF0160E0
:107FC00000BF00BFBDE8F05FFFF75ABABDE8F09F01
:107FD0000000214208080140008021422DE9F84FAD
:107FE00014460F4600287DD0DFF8DC8100F007053D
:107FF0004FF000090095C608C8F89491FEF7CAFF33
:108000004FF0010AC8F894A1FEF7C4FFC8F894A184
:10801000FEF7C0FFC8F89491FEF7BCFFC8F8949132
:10802000FEF7B8FFDFF8A481DFF8A4914FF0800AD3
:1080300090E000BF17F801BB0BF00101C8F8A411D4
:10804000FEF7A8FF207840082070D9F800204FEAFA
:108050005B0B0AEAC201084320700BF00101C8F86B
:10806000A411FEF797FF207840082070D9F800206F
:108070004FEA5B0B0AEAC201084320700BF00101D2
:10808000C8F8A411FEF786FF207840082070D9F8C0
:1080900000204FEA5B0B0AEAC201084320700BF094
:1080A0000101C8F8A411FEF775FF20784008207080
:1080B000D9F800204FEA5B0B0AEAC201084320709E
:1080C0000BF00101C8F8A411FEF764FF2078400806
:1080D0002070D9F800204FEA5B0B0AEAC20108437E
:1080E000207000E06DE00BF00101C8F8A411FEF76C
:1080F00051FF207840082070D9F800204FEA5B0B30
:108100000AEAC201084320700BF00101C8F8A4116B
:10811000FEF740FF207840082070D9F800200AEAD6
:10812000C201084320704FEA5B0056EA050103D103
:10813000254A0121C2F89411C8F8A401FEF72AFFCC
:10814000207840082070D9F800200AEAC2010843CC
:1081500004F8010B761EF6B2BFF46CAF0DB33E7897
:10816000DFF864B0574613E015B90120CBF894014D
:1081700006F00101C8F8A411FEF70CFF20784008B2
:108180002070D9F8001007EAC10108432070760872
:108190006D1EEDB2E8D200992078C1F10801C84007
:1081A0002070094C0120C4F8940104F5CA74FEF74C
:1081B000F1FE00202060FEF7EDFEBDE8F84FFFF76E
:1081C0007BB9BDE8F88F0000000021420080214209
:1081D000080801402DE9FC47DFF87C9099F8001071
:1081E00099F80000C1F3411710F010064FF0000895
:1081F000A9F67C3404D00A25A01C00F09EFE06E0FF
:108200006179D4F80200062561F31F604146635D81
:10821000D9F808404D46682204F8012B04F8018B78
:1082200004F8013BCDE900760C4E22465B1CF66A51
:10823000B0470444A868201A28612969A868FDF796
:108240005BFD2070162060702869801C2861BDE8E5
:10825000FC47FDF7C9BE0000542600204C19002041
:108260002DE9FC411C480178C1F34117017811F058
:10827000100602D00A220D2301E0062209234468D9
:108280001649641A8A5C521C1A44A24220D88046BD
:1082900041608C1C00252EB1204600F04EFE04F1FA
:1082A000080205E0E1782068221D61F31F6029467D
:1082B00012F8013B0A4CCDE90076246B5B1CA04709
:1082C000C8F8105088F80D50BDE8FC41FDF78CBE91
:1082D00001218170BDE8FC8154260020D81A0020BD
:1082E0004C190020064810B5002101730161A0F669
:1082F0007A3001F041FFBDE81040FDF775BE000087
:10830000542600202DE9FC47DFF808810024D8F826
:108310000800FF2870D0682609271625052866D290
:10832000DFE800F0030F212635008DF800608DF89E
:1083300001708DF8024010208DF803408DF8040084
:1083400005E08DF800608DF80170012018E08DF8CF
:108350000550062269468620FDF780FC3021062064
:10836000FCF78CFF43E0D8F80C0001F059FF01E066
:1083700001F05EFF8DF800608DF8017098F808003C
:108380008DF802008DF803408DF80440DFE7224DA0
:10839000A9462E706F700426AE7001F049FF1F4889
:1083A00001680622B2EB117F04D1016AC1F34221B8
:1083B000022903D00068B6EB107F08D1D8F804007A
:1083C000801E00EBD0704108A9F8061003E0B8F851
:1083D0000400801EE8804FF480510F4801F0FCFE3D
:1083E0000221C8F80410D8F80C0001F019FF72B689
:1083F000FF21C8F8081062B64046D8F800100029DE
:1084000006D072B6046062B6BDE8FC4700F0B0BCAE
:10841000BDE8FC87101A002000000020B01A0020E0
:108420007FB50546012100240846FCF79FFD1C206E
:108430008DF80C0002208DF80D008DF80E00012043
:108440008DF80F00124890FBF5F0010C04D081B2BA
:1084500090FBF1F480B2641EADF80400ADF800406A
:108460000020ADF80600ADF802004FF080446946E8
:108470002046FDF717FA012211462046FDF709FABA
:1084800003A8FCF759FC01212046FDF7ECF97FBD5C
:1084900000A24A0470B51149114C00204870A07820
:1084A000104D18B900F020F8FF2803D0E07855F8F7
:1084B00020008047207B012801D1FDF7EFFE4FF41B
:1084C00040510220FCF792FEFDF740FBBDE87040F2
:1084D000022264210020FCF703BC00004C1900209C
:1084E0005426002078B10008384810B50178682972
:1084F00001D0FF2010BD4178354C01F07F002528C8
:1085000058D018DC072857D006DC34D2DFE800F05A
:108510003535373750525400142849D006DC082826
:108520004ED009284ED00C2825D147E0152841D03F
:10853000242820D13CE0622821D00EDC452839D007
:1085400006DC342834D0352834D0442813D12FE029
:1085500054282DD055280ED12CE06C282ED006DCC6
:1085600063280CD0642823D0652804D122E0742825
:108570001ED075281ED0FF2002E0002000E0012060
:10858000E070E078FF280ED02170207840F30000E2
:10859000401C60702078000616D46078A0B10020DE
:1085A00020730C48A0600A4800F0A0FBE07810BDE2
:1085B0000220E5E70320E3E70420E1E70520DFE709
:1085C0000620DDE70720DBE70120E9E7D81A0020D5
:1085D00054260020D82400202DE9F04F87B0002534
:1085E0002B49029503950495059501F67C398F7802
:1085F000D9F808402E46AB46682204F8012BC91C66
:1086000004F8015B04F8017B2FE000BF11F8010BB7
:10861000C21D01EBD20212F8018B92461D4A08F1ED
:108620000703DD08D2F828C0BCF1000F11D002AB5F
:10863000CDE900A3434604AAE04704F8018B2A468B
:1086400002A92046FBF77EFD2C440AEB0501002021
:1086500008E0012189F80D10C9F810B007B0BDE895
:10866000F08F401CA842FCDB761CBE42CEDDD9F860
:1086700008004E46E91CFDF73FFB04F8010B1620ED
:1086800004F8010BB068201A3061FDF7ADFCE5E796
:10869000D81A00204C19002070B51E4800F67C3115
:1086A00082784D780023A0F12804C01CC5B105785C
:1086B00046780A2A45EA06258678C07845EA0645BE
:1086C00045EA006002D3012048731FE044F822000D
:1086D0004B730B610AB1042A18D100F01DF815E0A4
:1086E00054F822008C6808220A61682222706370A4
:1086F000A070020AE270020C2271000E607188689C
:108700000621FDF7F9FAA0711620E071BDE870406E
:10871000FDF76ABCD81A00202DE9F047C648016869
:108720000623C64AC64C0126B3EB117F0DD1C549BD
:10873000E161C5492162C5496162C549E162C54936
:10874000C4E90C12C449A16350E003680525C3497C
:10875000B5EB137F0AD1C24BE361C24B2362C24B1C
:108760006362C24BE362C24B23630FE005680427D8
:10877000C04AC14BB7EB157F0BD1C04DE561C04D71
:108780002562C04D6562C4E90B23BF4AC4E90D21CF
:108790002CE007684FF0030CBC4DBCEB177F05D1F4
:1087A000BB4FE761BB4F2762BB4F1AE007684FF032
:1087B000020CBCEB177F05D1B84FE761B84F2762B9
:1087C000B84F0EE00768B6EB177F05D1B64FE761EB
:1087D000B64F2762B64F04E0B64FE761B64F276247
:1087E000B64F6762C4E90D51C4E90B2380460068A7
:1087F000B34910F0706FB34FD8F800504FF00C022F
:108800004FF02A03404604D0C5F30365012D57D02D
:10881000ADE0D0F800C0EDB20CF47F0C45EA1C25A9
:108820002A2D2ED3DFF8A0C2C4F808C0DFF89CC2FE
:10883000C4F80CC0DFF898C2C4F810C02A3DDFF8B5
:1088400094C2B5FBF2F2C4F818C0DFF88CC2C4F8C9
:1088500028C0DFF888C2C4F814C00A6002EB4201E5
:10886000026803EB810102F0FF220260026801F45A
:108870007F4342EA032202600268C9B20A430260EF
:1088800014E0026802F0FF220260026842F0120265
:1088900002609348A0609348E06093482061934849
:1088A000A0619348A062934860610E605FF000058C
:1088B000C7F89461FEF76EFB6D1C5A2DF8D356E095
:1088C0000568D0F800C0EDB20CF47F0C45EA1C2519
:1088D0002A2D2ED3DFF820C2C4F808C0DFF81CC24E
:1088E000C4F80CC0DFF818C2C4F810C02A3DDFF885
:1088F00014C2B5FBF2F2C4F818C0DFF80CC2C4F819
:1089000014C0DFF808C2C4F828C00A6002EB4201B4
:10891000026803EB810102F0FF220260026801F4A9
:108920007F4342EA032202600268C9B20A4302603E
:1089300014E0026802F0FF220260026842F01202B4
:1089400002607348A0607348E06073482061734818
:10895000A061734860617348A0620E605FF000051B
:10896000C7F89461FEF716FB6D1C5A2DF8D3D8F8A2
:1089700000004546C0F301206B494FF00008032872
:108980000AD02868C0F30120012820D02868C0F34D
:108990000120022824D02AE0C7F880818946C1F846
:1089A000A081A868E968884208D9E868FBF7DFFE7B
:1089B000C7F88061A868E968401A0CE0A868FBF76E
:1089C000D6FEC9F8A061E868A968401A0BE089469C
:1089D000C1F8A081A868FBF7CAFEC9F8A06106E04B
:1089E000C7F88081E868FBF7C2FEC7F88061286895
:1089F000A94640050FD50025C7F89461C7F88481C2
:108A00000220FBF7ACFEC7F884610220FBF7A7FE4B
:108A10006D1C642DF0D3D9F800104846C90401D567
:108A2000102100E00821A170016821F4E0610160DB
:108A3000BDE8F047FDF7D8BAB01A0020D9A0000869
:108A40004C190020F1990008899B00083FA00008FC
:108A5000759C0008219F00085D930008DBA00008BA
:108A600079990008FF5F00083DA00008719C00088C
:108A7000459E00088D9B0008619D000861980008D4
:108A80004D9B00083BA00008A1A0000841A00008E1
:108A900081970008219B000839A0000881950008F3
:108AA000999A000837A0000891940008619A00087C
:108AB00035A0000885930008F99900080DA000086A
:108AC000E41900200000214275760008897300082F
:108AD000297100086D6F0008A3770008956F0008E2
:108AE000D5740008FD710008E96F0008456F0008A3
:108AF00075770008C56F0008816D0008D96A000805
:108B00009D670008D1650008F9650008996E0008A6
:108B1000396C0008C168000839660008A9650008BA
:108B200025660008456E00080080214210B5FDF75B
:108B3000A9FC0E480021017041708170C170A0F63F
:108B40007C324260A0F5BE72826001730161A0F6C2
:108B5000A43007490160642141604FF47A71C1601B
:108B60008160BDE81040FFF7D7BD0000542600200B
:108B7000030000211FB504466846FCF7C5FF2179B4
:108B8000002021B1012905D002291ED105E0ADF850
:108B9000060006E04FF4405101E04FF40051ADF8FB
:108BA0000610617921B1012905D002290DD105E016
:108BB000ADF8080006E04FF4806101E04FF4C061B9
:108BC000ADF80810A179082904D000F021F80020A0
:108BD00004B010BDBDF8081021B14FF48051ADF8BC
:108BE000041001E0ADF804002168ADF80C000C2081
:108BF000ADF80A000091684602F070F90348024996
:108C0000416081600120E3E708270020F41900207B
:108C10001FB56846FCF778FF4FF4E13000906846D6
:108C200002F05CF91FBD000010B50748FCF764FFB7
:108C300006494A6802F8010B05484A60824201D1A0
:108C40007F38486010BD000000440040F419002047
:108C50008727002070B5144CD4E90101884222D046
:108C60002268531C2360B2F5FA7F1CDD00220F4EF0
:108C70002260884202D2751A803502E072B6451A27
:108C800062B62A468520FCF7E9FF30210520FCF773
:108C9000F5FA72B6A068054928447F31A060884281
:108CA00000D9A66062B670BDF41900200827002024
:108CB00070B50E460446094D0BE000BF14F8011BC9
:108CC0002846FCF71DFF40212846FCF780FE0028BF
:108CD000F9D0761EF2D2304670BD0000004400404C
:108CE0000149002008707047E019002070B51E4C43
:108CF000A16B88471D4DE87821780026884230D046
:108D0000E8782070E07888B10122E36904F13C0141
:108D1000104698470122E36904F144010220984774
:108D2000626A0121A5F110009047E67001262671C4
:108D3000E878022802D0E878032811D10B480021F6
:108D4000626A10389047084900223C31E3690120EB
:108D50009847054900224431E36902209847E670AC
:108D600070BD267170BD00004C19002054260020F3
:108D70002DE9FF414C4E37684C4D4FF480614FF068
:108D8000060C8A1E4B1E4A4C6868BCEB177F43D109
:108D900088420FD1316AC1F34221022918D0022141
:108DA00004EB8102526844F82120491C9942F7D310
:108DB000401E68604FF00071712002F027F8306AA1
:108DC000C0F342204001202810D0402812D109E0F1
:108DD00004EB81039B6844F82130491C9142F7D38E
:108DE000801EE6E7052001A901F026FF6946042060
:108DF00001F022FFDDE90021686844F82020401CD2
:108E00006860326AC2F34222022A03D144F8201079
:108E1000401C6860BDE8FF81042788421AD1316890
:108E2000B7EB117F4FF002010AD100BF04EB8103C1
:108E30009B6844F82130491C9142F7D3801E08E01A
:108E400004EB8102526844F82120491C9942F7D36F
:108E5000401E6860862100200191CDE9020015497D
:108E6000012004220978102904D12969022041F443
:108E7000064101913168B7EB117F00D10822DFF87C
:108E800038C000210091DCF800C002AB01A9E04726
:108E9000DDE90221686844F82020401C68603268DF
:108EA000B7EB127FB2D0B5E7B01A0020101A00203D
:108EB000000000204E190020641900207CB50E4CE3
:108EC000E068A0B1606890B90C480025006A800D88
:108ED000C00708D00020CDE9000002460123694602
:108EE000022001F033FF2946182001F08FFF0020F7
:108EF000E0606060A0607CBDA0190020B01A002076
:108F000070B50A4E002400BF06EB04152868401C0B
:108F100007D0A86808B1804718B1E96809B1686846
:108F20008847641C0A2CEFDB70BD00006826002017
:108F3000C178006861F31F6070470346002010B5D8
:108F400001460722090241EA10610402985C2043AD
:108F5000521EF7D510BD00000249C96961F3010036
:108F600070470000B01A002030B5012301F01F0443
:108F700003EB0111C9B20D282ED2DFE800F02D0756
:108F80000C0F142D2D1A1D202326290044EA04104D
:108F9000107012201EE01170102001E011701820D6
:108FA00040EA141016E0641E03EB04101070202039
:108FB00010E01370A2200DE01370C2200AE01370BD
:108FC000822007E01370B22004E01370D22001E089
:108FD00013709220507030BD00201070FAE730B549
:108FE0008423402401F01F010D2832D2DFE800F075
:108FF000311F313110313116191C0D0A0700137061
:10900000582024E01370542021E0137050201EE0FB
:10901000491E44EA41001070202018E0137054707B
:1090200030BD1370442012E0137048200FE03C2044
:1090300000EA8100022340EA811003EAD1031843C9
:1090400040EA11101070C1F3810040F01C00507014
:1090500030BD00201070FAE710B5402301F01F0169
:109060000D2828D2DFE800F0271D27271027271416
:10907000171A0D0A07001370B1201AE01370A92007
:1090800017E01370A12014E0491E1170212010E098
:10909000137081200DE0137089200AE01370912075
:1090A00007E0880140EA8100C01C10706C2040EA93
:1090B0009100507010BD00201070FAE72DE9F04FBC
:1090C00001F01F0444F0200C00232127C025412477
:1090D00001F01F064FF0050B4FF0D8094FF0100EAE
:1090E0004FF0DC0A0D285FD2DFE800F05E070E24A7
:1090F0003B5E5E4245495053570082F800C048200D
:1091000050709670C42031E06020BBEB511F04D139
:109110001770507082F802C009E006231770B3EB95
:10912000511F507002D146F0E00014E09670D570E7
:10913000BDE8F08F6420BBEB511F04D182F800C062
:1091400050709770F3E7062382F800C0B3EB511F0D
:10915000507003D1E1209070C12007E00120907091
:10916000E5E7761E167053709770A020D070DFE789
:109170001370537006E0137082F801E002E0137080
:1091800020205070947082F80390D1E713705370D0
:1091900006E0137082F801E002E0137020205070A6
:1091A000947082F803A0C3E7137053709370D37068
:1091B000BEE72DE9F04F01F01F0444F0200C00231E
:1091C0002127C025412401F01F064FF0050B4FF069
:1091D000D8094FF0100E4FF0DC0A0D285FD2DFE8FF
:1091E00000F05E070E243B5E5E4245495053570037
:1091F00082F800C0482050709670C42031E0602092
:10920000BBEB511F04D11770507082F802C009E007
:1092100006231770B3EB511F507002D146F0E000E7
:1092200014E09670D570BDE8F08F6420BBEB511F41
:1092300004D182F800C050709770F3E7062382F8DB
:1092400000C0B3EB511F507003D1E1209070C120DA
:1092500007E001209070E5E7761E16705370977056
:10926000E420D070DFE71370537006E0137082F8CB
:1092700001E002E0137020205070947082F8039097
:10928000D1E71370537006E0137082F801E002E03A
:10929000137020205070947082F803A0C3E71370FD
:1092A00053709370D370BEE7F0B501F01F048025B2
:1092B00003262327202300210F2836D2DFE800F0E1
:1092C00035083535113535171A1F25282E2231005E
:1092D000132040EAC4101070600840EAC4135370B1
:1092E00003E09320107055702001907014E0167008
:1092F000812001E016709120507091700CE0167082
:10930000A120F9E71670B120F6E71770557002E05A
:109310001770902007E09370D170F0BD1770A020F7
:1093200001E01770B0205070F5E711705170E4E75C
:10933000094901EB8000404200F47F2141F06F01B8
:10934000C0F3C02241EA0251C0F3490241EA42514E
:10935000001541EAC0707047FCFBFFFF70B5074C79
:10936000074D6078296A00F07F00884205D0FFF73A
:10937000A5FD607800F07F00286270BDD81A00203B
:10938000A01900202DE9F84FDFF8FC80DFF8F4B0D9
:109390000D468646140098F804C098F8057098F8B1
:1093A00006A098F8073098F8081098F8099098F8EF
:1093B0000A004FF04B0698F80B800BF10D025C464B
:1093C0008BF8006031D02E7866706E78A670AE781B
:1093D000E670ED78257184F805C0A77184F807A0C0
:1093E0002372617284F80A90E07284F80C807146EE
:1093F0000120FFF7B9FD8020E07307200125234EEF
:1094000020740095631C3768102259462846B847D7
:109410000B2020700820E07306202074631C1022AB
:10942000009559460120346829E000266670A67030
:10943000E670267184F805C0A77184F807A023722E
:10944000617284F80A90E07284F80C807146012001
:10945000FFF78AFD8020E073062020740B4F012067
:109460000090631CD7F800C010220649E0478B200B
:109470002070009604223C682B4602490120A04738
:10948000BDE8F88F0426002044260020641900203F
:109490002DE9F74F384C82B09520DFF8E08020703E
:1094A0004FF0000B1746CDF800B0631C0222D8F82D
:1094B000005021460120A84760784FF0150A40F07F
:1094C0008005A07884F800A000F0FE0040F00606B9
:1094D000657017B146F0010001E026F00100A070B0
:1094E0004FF00109CDF80090631CD8F800C00222AB
:1094F00021494846E04757B111202070CDF800902F
:109500000422D8F800C01C490120039BE0475420E6
:10951000207002980F2805D90146621C0120FFF730
:10952000CDFD04E00146E21C0120FFF758FDCDF817
:109530000090631C0422D8F800C00F490120E047C6
:1095400057B991202070CDF800B00422D8F80070EF
:1095500009490120039BB84784F800A06570A670F4
:10956000631CCDF800900222D8F800400249012087
:10957000A04705B0BDE8F08F042600206419002044
:109580002DE9F74F834682B07A480026ADF8046093
:109590000078794C794F15464FF0010810281AD001
:1095A0009520207000200090631C02223E68214616
:1095B0000120B946B047607840F08006A07800F0FE
:1095C000FE0040F0060715202070002D66707ED04A
:1095D00047F001007DE04FF41540FFF7BDFCADF80A
:1095E0000400B246009602223E68634B01A9104671
:1095F000B946B047207840F08006607800F0FE0061
:1096000040F006074FF4A850FFF7A6FCADF80400A1
:10961000267015B147F0010001E027F001006070ED
:10962000CDF800800222D9F800C0534B01A91046A2
:10963000E04775B14FF48850FFF78EFCADF8040099
:10964000CDF800800422D9F800C001A90220039BB4
:10965000E0475846BBF10F0F05D90146464A0120A5
:10966000FFF7A7FD04E00146A21C0120FFF7F4FC70
:109670004FF4A840FFF770FCADF80400CDF800806F
:109680000422D9F800C03C4B01A90220E04775B97B
:109690004FF41140FFF760FCADF80400CDF800A0D6
:1096A0000422D9F8005001A90220039BA8474FF4D7
:1096B000A850FFF751FCADF8040026706770022235
:1096C0002D4B01A91046CDF800804CE0FFE727F0B4
:1096D0000100A070A246631CCDF800800222D9F8D8
:1096E000004025490120A0475DB111218AF80010F2
:1096F000CDF800800422D9F800401F490120039BC7
:10970000A04754208AF8000054465846BBF10F0F7A
:1097100005D90146621C0120FFF74BFD04E001461C
:10972000E21C0120FFF798FCCDF80080631C0422A6
:10973000D9F800C010490120E04755B991202070A8
:10974000002000900422D9F800500B490120039B0F
:10975000A847152020706670A770631C0222064976
:109760000120CDF80080D9F80040A04705B0BDE841
:10977000F08F00004E1900200426002064190020FC
:109780002DE9F74F344C82B09520DFF8D08020705F
:109790004FF0000B1746CDF800B0631C0222D8F83A
:1097A000005021460120A84760784FF0150A40F08C
:1097B0008005A07884F800A000F0FE0040F00606C6
:1097C000657017B146F0010001E026F00100A070BD
:1097D0004FF00109CDF80090631CD8F800C00222B8
:1097E0001D494846E04757B111202070CDF8009040
:1097F0000422D8F800C018490120039BE0475420F8
:109800002070621C01200299FFF74EFDCDF80090F8
:10981000631C0422D8F800C00F490120E04757B963
:1098200091202070CDF800B00422D8F800700A49C9
:109830000120039BB84784F800A06570A670631CE4
:10984000CDF800900222D8F8004003490120A0473B
:1098500005B0BDE8F08F0000042600206419002048
:109860002DE9F74F82B04FF0000A17465446ADF885
:1098700004A04FF41540FFF76FFB00943C4CDFF859
:10988000F4B0ADF80400A31C0222DBF8005001A9DB
:109890001046A847A07840F08005E07800F0FE0070
:1098A00040F006064FF4A850FFF756FBADF8040051
:1098B000A57017B146F0010001E026F00100E0704C
:1098C0004FF00108A31CCDF80080A1460222DBF86E
:1098D00000C001A910465C46E04777B14FF48850BC
:1098E000FFF73AFBADF80400CDF800800822D4F869
:1098F00000C001A90220039BE0474FF4A840FFF7F6
:109900002BFBADF8040009F1020201200299FFF7D8
:10991000CBFCCDF800800422D4F800C009F102038A
:1099200001A90220E0476FB94FF41140FFF714FB83
:10993000ADF80400CDF800A00822276801A9022094
:10994000039BB8474FF4A850FFF706FBADF804009F
:1099500089F8025089F80360CDF80080022224685B
:1099600009F1020301A91046A04705B0BDE8F08F38
:10997000042600206419002010B50C46CAB10C68FA
:109980001949002341EAC0111A46184600F0F0FCBC
:109990000120FFF7CDFC014600231A46012000F00C
:1099A000E7FC01232146BDE810401A46042000F0E0
:1099B000DFBC42F2230101EB00510C4800230143BC
:1099C0001A46184600F0D4FC0120FFF7B1FC012331
:1099D00001461A46184600F0CBFC2146BDE810406F
:1099E000042000F07FBC000003200041000800407C
:1099F000002300F0FDBC000038B5164C4B2200F0EF
:109A00007F00227000226270A270E2702271124AFE
:109A1000137963715379A3719379E371D3792372C5
:109A2000137A6372537AA372937AE372D27A2273AF
:109A300004F10D02FFF798FA8020E07306202074ED
:109A4000631C2146054C0120009024681022A04789
:109A500038BD0000042600204426002064190020A0
:109A600038B50B4C54222270020605D500F07F0059
:109A7000621CFFF723FB02E0E21CFFF7B0FA631C55
:109A8000044C01200090246804220149A04738BDFD
:109A900004260020641900202DE9FC4705461D48D6
:109AA0008946012601781C4F1C4C05F07F081029BF
:109AB00009D05420207028061ED5621C4946404615
:109AC000FFF777FB1DE04FF4A840FFF745FAADF82C
:109AD0000400280605D5114A49464046FFF769FBB0
:109AE00004E0A21C49462846FFF7B6FA04220B4BB5
:109AF00001A90220009609E0E21C49462846FFF72A
:109B0000ABFA631C04220549012000963C68A0477B
:109B1000BDE8FC874E1900206419002004260020AF
:109B200038B5084C542200F07F002270621CFFF709
:109B3000BBFB631C2146044C0120009024680422D6
:109B4000A04738BD04260020641900207CB50446D7
:109B50000D464FF4A840FFF7FFF9ADF8040004F0FC
:109B60007F00074C2946A21CFFF79EFBA31C054C57
:109B7000012000900422246801A90220A0477CBD96
:109B80000426002064190020704700002DE9FF41E1
:109B9000354E1D4614461746012233686946104665
:109BA000DDF8288098475FEA0800DFF8C08006D01B
:109BB000012817D002282AD0032851D13CE02DB328
:109BC0000021D8F800200720904700223368214662
:109BD000022098470121D8F8002004209047641CF7
:109BE0006D1EECE76D083BD00021D8F8002008205E
:109BF0009047002233682146022098470221D8F876
:109C0000002004209047A41C6D1EEDD128E0AD0873
:109C100026D00021D8F80020092090470022336880
:109C20002146022098470421D8F800200846904792
:109C3000241D6D1EEDD113E0ED0811D00021D8F8E0
:109C400000200D20904700223368214602209847CB
:109C50000821D8F800200420904708346D1EEDD16B
:109C600004B0E01BBDE8F081681900206C190020E9
:109C7000002070472DE9FC47054638480E46DDE9CF
:109C80000A48016A1F469146C1F3814111B1022978
:109C900057D061E0102F15D3022C13D1016AC1F304
:109CA000043101290ED0016AC1F30431022903D124
:109CB000016A490CC90705D0016AC1F304310229C0
:109CC0000BD012E0FFF7FAF83B464A4628463146E9
:109CD000009400F00DFCBDE8FC87016A490CC9073F
:109CE00003D0016A490DC9070ED0016AC1F30431DE
:109CF000022903D9016A490DC90705D0016AC1F3D8
:109D0000043102290AD00DE0FFF7D8F83B464A4655
:109D100028463146009400F039FCDCE7016A490C22
:109D2000C90704D1016AC1F30431022914D9006AB8
:109D3000400DC00710D028463146009400F06CFC5E
:109D4000C9E7FFF7BBF8CDE900483B464A4628463D
:109D5000314600F0E1FCBEE70020BCE7B01A00206D
:109D60002DE9FF41354E1D46144617460122336842
:109D700069461046DDF8288098475FEA0800DFF85A
:109D8000C08006D0012817D002282AD0032851D13C
:109D90003CE02DB301223368214602209847002180
:109DA000D8F800200A2090470121D8F8002004208C
:109DB0009047641C6D1EECE76D083BD001223368B0
:109DC0002146022098470021D8F800200B20904718
:109DD0000221D8F8002004209047A41C6D1EEDD16C
:109DE00028E0AD0826D0012233682146022098479A
:109DF0000021D8F800200C2090470421D8F800203A
:109E000008469047241D6D1EEDD113E0ED0811D0DA
:109E1000012233682146022098470021D8F800200B
:109E20000E2090470821D8F80020042090470834DD
:109E30006D1EEDD104B0E01BBDE8F0816819002073
:109E40006C1900202DE9FF412E49164690460A78EC
:109E50000A9800272C4901251C46854012B94A6AF8
:109E6000824235D030B1012806D0022807D003281D
:109E70000AD107E0254F07E0254F5C0804E0254F95
:109E80009C0801E0244FDC08486201226946104624
:109E9000FFF772FD00231A462049184600F068FAC1
:109EA00000231A463946012000F062FA48F2930076
:109EB00000EB055100231A46022000F059FA032056
:109EC000FFF736FA014600231A46032000F050FA45
:109ED000EF17641E11D301231A460420316800F0E5
:109EE00047FA0320401EFDD2DDE900012A1847EBA6
:109EF0000100CDE900202E44EBE704B0A6EB0800FA
:109F0000BDE8F08150190020A01900202380200016
:109F10002390200023A0200023B020000321004133
:109F20002DE9FC47054638480E46DDE90A48016A36
:109F30001F469146C1F3814111B1022957D061E01A
:109F4000102F15D3022C13D1016AC1F3043101295A
:109F50000ED0016AC1F30431022903D1016A490C10
:109F6000C90705D0016AC1F3043102290BD012E000
:109F7000FEF7A4FF3B464A4628463146009400F0CF
:109F800081FCBDE8FC87016A490CC90703D0016A5E
:109F9000490DC9070ED0016AC1F30431022903D962
:109FA000016A490DC90705D0016AC1F304310229CC
:109FB0000AD00DE0FEF782FF3B464A46284631466E
:109FC000009400F0B1FCDCE7016A490CC90704D138
:109FD000016AC1F30431022914D9006A400DC00797
:109FE00010D028463146009400F0D8FCC9E7FEF7AF
:109FF00065FFCDE900483B464A462846314600F019
:10A0000081FDBEE70020BCE7B01A002038B5074A42
:10A010000B23137009B98B231370054C0091034671
:10A020001022246801490120A04738BD04260020E1
:10A030006419002070477047704770477047704739
:10A040007CB50E4613490124134D097810290BD015
:10A050001249E0B11920087004221049334601204A
:10A0600000942C68A0477CBD0021ADF8041058B1C5
:10A070004FF4C850FEF770FFADF8040004223346D9
:10A0800001A902200094ECE74FF4C050F2E7182039
:10A09000E1E700004E19002064190020042600208A
:10A0A0001CB50C460021ADF8041078B14FF4C8502F
:10A0B000FEF752FF2346ADF80400064C0120009045
:10A0C0000822246801A90220A0471CBD4FF4C050FB
:10A0D000EEE700006419002070477047FBF748F96D
:10A0E0000420FBF72BFB1D484FF47A710126006812
:10A0F000B0FBF1F0B0F1807F24D220F07F414FF02F
:10A10000E020491E4161164AF02182F8141D002406
:10A11000846107210161FBF73FF9FBF717FDFBF7AE
:10A1200001FD104D6C61642028610F4804700F48D8
:10A1300004700F4806600F48046000F085F800F0D6
:10A1400037F800E0FEE7686820B1FBF79AFD286861
:10A15000FAF7B8FDFEF7D4FEF5E700005C1A002020
:10A160000FE000E004100020981900209919002049
:10A17000F0190020EC19002002780649012A01D0CC
:10A180008A60704701228A6042780A614088C8600C
:10A1900070470000101A00200448016811B9806857
:10A1A000FF2801D00120704700207047101A0020BE
:10A1B00010B500F03DF802490220486010BD0000D3
:10A1C000101A002003494869002802D0896900F06C
:10A1D00003B87047101A002010B5104C0A46011E33
:10A1E000C4E9050219D0402A09DC8620FBF736FDB8
:10A1F00030210620FBF742F8002060610CE040228D
:10A200008620FBF72BFD30210620FBF737F860692D
:10A2100040306061A0694038A06110BD101A002074
:10A22000024A02215160FEF7FBB80000101A00201C
:10A2300000214FF08040FBF716BB000001490120D0
:10A2400008607047101A002010B50024A0211048A3
:10A25000F9F791FF0E48611E00EB0412641C1160B7
:10A260000A2CF9DB0B4A0C49002000F023F80B4ABA
:10A270000B49002000F01EF80A4A0B49002000F0AC
:10A2800019F80A4A0A49002000F014F8002010BD0D
:10A2900068260020958400089D650008E14B0008B1
:10A2A000D54B0008558C0008C5AE00080583000892
:10A2B00099A1000830B50446094B002003EB0015B6
:10A2C0002D686D1C05D0401C0A28F7DB4FF0FF30CD
:10A2D00030BD03EB0013C3E90004C3E9021230BD33
:10A2E000682600202DE9F04188B088460021CDE99C
:10A2F0000411CDE9021111210024CDE9061429250C
:10A3000000F072F8CDE90404810F8000CDE904016A
:10A31000CDE9044080000121CDE9041002AE04AF74
:10A32000124CCDE900762923D4F800C007AA06A96B
:10A330000520E0470020CDE904000120401EFDD2A9
:10A34000CDE9007624682B4607AA06A90520A04778
:10A35000DDE90201800840EA81708908CDE9020147
:10A360000299C8F8001008B0BDE8F0817419002007
:10A37000F0B589B00C460021CDE90211CDE90411F8
:10A3800011210025CDE906151E46174600F02CF8D0
:10A39000CDE90205810F830046EA4700C217CDE9E7
:10A3A00002310A4318430392CDE90240800040EA9B
:10A3B0009470A100CDE9021041F00201029104A9BC
:10A3C00002A8084CCDE900012923246807AA06A9A0
:10A3D0000520A0470020CDE902000120401EFDD24B
:10A3E00009B0F0BD74190020102800DB3030704730
:10A3F0002DE9F0470D4600F58051164661F30F0038
:10A4000066F3104020F4002040F40034374F63F32B
:10A410009244002060F31F64386AC0F34220400178
:10A42000202804D0402807D080280ED109E024F449
:10A43000E00404F5001408E024F4E00404F54014FA
:10A4400003E024F4E00404F5800405F10C0905F1AF
:10A4500008082EB3386AC0F342204001202818D0E3
:10A4600040280FD080281BD14846FEF761FD0146E9
:10A47000072000F0CBFC4046FEF75AFD01460620BF
:10A4800000F0C4FC281DFEF753FD0146052000F036
:10A49000BDFC2846FEF74CFD0146042000F0B6FC4A
:10A4A0002146172000F0B2FC3020401EFDD2CEB96C
:10A4B000386AC0F34220400120280FD0402809D03C
:10A4C00080280FD14946072000F0B6FB4146062000
:10A4D00000F0B2FB291D052000F0AEFB2946042048
:10A4E00000F0AAFB0020BDE8F0870000B01A0020B1
:10A4F0002DE9FF41234E0A9F1C46154690464FB159
:10A50000012F0AD0022F0CD0032F0ED0002004B050
:10A51000BDE8F08148F203110AE049F203115C083A
:10A5200006E04AF203119C0802E04BF20311DC083A
:10A53000202000F06BFC1448006AC0F304300128AE
:10A5400003D93146212000F061FC0126BE40F717F7
:10A55000641E14D301231A4669461846FFF748FFC4
:10A5600000231A4629460220FFF742FFDDE90001D9
:10A57000321847EB0100CDE900203544E8E7A5EBB0
:10A580000800C4E773001000B01A00202DE9FF4155
:10A59000144616464AF203111C4FDFF874809D08DA
:10A5A000202000F033FC3946212000F02FFC194810
:10A5B000006AC0F30430022803D94146222000F08B
:10A5C00025FC01231A4669461846FFF711FF0DE0E6
:10A5D0000123002221460220FFF70AFFDDE90001E6
:10A5E000241D001D41F10001CDE9000128466D1E2A
:10A5F0000128EDD800231A4621460220FFF7F8FE75
:10A60000241D04B0A01BBDE8F08100009380400031
:10A6100073001000B01A00202DE9FF5F84B00127FD
:10A6200012984AF20311874048F2930000EB07505A
:10A63000CDE90001DFF8D8A001200290DFF8CCB00E
:10A64000DAF8200015469046324E9C084FF000097B
:10A65000F06858B1706848B1D6E90A23DDE9041002
:10A660004A4043401A4334D0FEF728FC002000F053
:10A670001FFCDDE90420121940EB0900C6E90A209D
:10A680002020019900F0C2FB2120009900F0BEFBC0
:10A69000DAF82000C0F30430022803D959462220FA
:10A6A00000F0B4FB01231A4604A91846FFF7A0FEE8
:10A6B0000123002229460220FFF79AFE3D44641E32
:10A6C0001820029900F0A2FB2946042000F0B4FAF9
:10A6D0000AE0091940EB0900C6E90A10F0E729462B
:10A6E000042000F0A9FA3D442046641E0128F6D853
:10A6F0000021182000F08AFB2946042000F09CFA73
:10A70000781908B0A0EB0800BDE8F09F73001000B6
:10A71000B01A0020A01900202DE9FE4F8946002123
:10A72000DDE90C7BCDE90013804602915048514988
:10A730001D461446924637B1012F06D0022F07D08E
:10A74000032F09D106E0084606E04B486D0803E0F8
:10A75000AD0801E04948ED080126BE40012D1ED09C
:10A7600040F48C11382000F051FBBBF1000F03D0F6
:10A7700049463A2000F04AFB4146392000F046FBAA
:10A7800002A9382000F058FA0298000B400755D073
:10A790003B49382000F03AFB0198BDE8FE8F40F4B9
:10A7A0008011382000F032FBBBF1000F03D0494686
:10A7B0003A2000F02BFB4146392000F027FB02A98C
:10A7C000382000F039FA0298000B4007E0D16946C2
:10A7D0003C2000F031FA032F05D03246694620466E
:10A7E000F9F7B0FC40E000982060211D3C2000F00B
:10A7F00023FA39E04FF0000802A9382000F01CFAD3
:10A800000298400DC00704D008F10108B8F10A0F02
:10A81000F2DB032F03D1211D3D2000F00DFA694624
:10A820003C2000F009FA032F05D032466946204645
:10A83000F9F788FC01E000982060344428466D1E3A
:10A840000128D7D80A49382000F0E0FA032F03D1B5
:10A85000211D3D2000F0F0F969463C2000F0ECF9A4
:10A86000032FBAD1009820603019A0EB0A0094E7BA
:10A870001C0504201C0500201C0502201C050620C8
:10A880001C7504202DE9FF41214E0A9F1C461546E8
:10A890009046002137B1012F06D0022F07D0032F99
:10A8A0000AD107E01B4907E01B495C0804E01B498B
:10A8B0009C0801E01A49DC08202000F0A7FA19489A
:10A8C000006AC0F30430012803D93146212000F08A
:10A8D0009DFA0126BE40F717641E14D301220023FF
:10A8E00069461046FFF784FD01231A4629460220D7
:10A8F000FFF77EFDDDE90001321847EB0100CDE9ED
:10A9000000203544E8E704B0A5EB0800BDE8F0817D
:10A9100073001000238020002390200023A020003B
:10A9200023B02000B01A00202DE9FF41144615463F
:10A930000A980122824048F2930000EB0257144922
:10A94000DFF850809E08202000F060FA3946212070
:10A9500000F05CFA1048006AC0F30430022803D902
:10A960004146222000F052FA012200236946104697
:10A97000FFF73EFD06E001231A4621460220FFF7BD
:10A9800037FD241D761EF6D204B0601BBDE8F081B1
:10A9900023A0200073001000B01A00202DE9FF5FF3
:10A9A000DFF8509182B01446D9F820109346C1F3D5
:10A9B000C50101F1220AD9F82410D9F800008F004E
:10A9C0004FF002084C4E9D081037F06858B1B0683F
:10A9D00048B1D6E90E23DDE9020142404B401A435B
:10A9E00056D0FEF76BFA012000F062FADDE902238F
:10A9F000A900891843F10000C6E90E102020316932
:10AA000000F004FA2120716900F000FAD9F8200062
:10AA1000C0F30430022803D92220B16900F0F6F90E
:10AA20000122002302A91046FFF7E2FC01231A4687
:10AA300021460220FFF7DCFC1820241DF16900F0FC
:10AA4000E5F90420216800F0E1F9D9F82000241D7F
:10AA5000800DAD1EC00709D001200021CDE9000105
:10AA600003460A466946022000F070F9234A22494B
:10AA700005201268904700BF00F014FAD9F82000B2
:10AA8000800DC1071E482AD04FF02209824614E0EB
:10AA9000AB00181841F10002C6E90E02ECE720688D
:10AAA000810F48EA80003943C6E90C011249DAF8FF
:10AAB0000020484630319047241D6D1EEFD211E032
:10AAC0002068810F48EA80003943C6E90C010A4931
:10AAD000D9F80020504630319047241D00E08146CF
:10AAE0006D1EEDD2FEF7FCF806B0A4EB0B00BDE83E
:10AAF000F09F0000B01A0020A01900205419002077
:10AB0000581900202DE9FE4F0646DDE90C7B45482B
:10AB1000009045481C46154689469246029337B137
:10AB2000012F06D0022F08D0032F0BD107E0009091
:10AB300008E03E486408009004E0A40802E03C48B5
:10AB4000E4080090012000FA07F8012C14D000203E
:10AB50000190009840F480313820009100F056F9BF
:10AB6000BBF1000F03D049463A2000F04FF93146BF
:10AB7000392000F04BF949E03820009900F046F9FF
:10AB8000BBF1000F03D049463A2000F03FF93146AF
:10AB9000392000F03BF9032F04D129683D20091D1D
:10ABA00000F034F93C20296800F030F9694638207B
:10ABB00000F042F80098000B400713D145442EE006
:10ABC000032F03D13D20696800F020F93C2029685B
:10ABD00000F01CF901A9382000F02EF80198000BB4
:10ABE000400706D01349382000F010F90298BDE85C
:10ABF000FE8F002601A9382000F01EF80198400DB4
:10AC0000C00702D0761C0A2EF4DB45442046641EA1
:10AC10000128D5D803493820009100F0F7F8A5EBBA
:10AC20000A00E4E71C0504201C0500201C05022086
:10AC30001C0506201C7504202DE9F04F414A8A4668
:10AC400089B0116A4FF0000BCDE904BBCDE906BB1A
:10AC5000CDF820B0C1F3C504136859465E462234CE
:10AC600013F0706F01D0012700E000271123089333
:10AC7000526ADFF8D4901044CDE90401800001212C
:10AC8000CDE90410D9F800C00DF1080804AD7FB17A
:10AC90001902000208914FF48071CDE904100834C4
:10ACA000CDE90058234606AA08A90D20E04708E090
:10ACB000CDE90058234606AA08A90520E047012649
:10ACC0001FE0761CEFB101210020CDE90410CDE991
:10ACD0000058D9F800C0234606AA08A90D20E0476D
:10ACE000DDE90201000A40EA0160090ACDE902013A
:10ACF00010F0300F01D00A2EE3D9029814E0761C30
:10AD000000E04F460020CDE90400CDE90058D7F817
:10AD100000C0234606AA08A9E0470298800701D090
:10AD20000A2EECD9DDE90201800840EA8170890829
:10AD3000CDE902010299CAF8001009B05846BDE8F1
:10AD4000F08F0000B01A002074190020F0B52D4ECD
:10AD50000C468BB0316A1D460023CDE90433CDE9A2
:10AD60000233089309933668C1F3C501202316F016
:10AD7000706F01D0012700E00027112802D00228BF
:10AD800006D006E00AB1222303E001F1220300E02D
:10AD900001231D4E02A904AA3668C7B1000208901B
:10ADA000D4E900704FEA002040EA176008334FEA08
:10ADB000072715B97F1C40F10000CDE90470CDE9EB
:10ADC000002109AA08A90D20B047A5B110E00890FC
:10ADD0001DB1D4E90007CDE90407CDE9002109AA96
:10ADE00008A90520B0471DB9DDE90201C4E9000149
:10ADF0000BB00020F0BDDDE90201000A40EA01606D
:10AE0000090AF3E7B01A00207419002070B5234C2A
:10AE10008AB0226AC2F3C5030022CDE90622CDE939
:10AE20000222059208922268223312F0706200D04A
:10AE3000012211250595646A02AD20448C0F89001A
:10AE400044EA800041F00201154CCDE90610246867
:10AE500006AEC2B1000240EA11600902CDE9061057
:10AE60004FF488520592CDE900650D2008AA05A986
:10AE70000833A047DDE90201000A40EA0160090A3F
:10AE8000CDE9020105E0CDE9006508AA05A9052084
:10AE9000A04702980AB000F0030070BDB01A00206D
:10AEA000741900200149012008707047E019002042
:10AEB000034A0121D16008B1916070475160704729
:10AEC000A01900200448D0E90110814201D10020DE
:10AED0007047012070470000F41900207FB5264E0E
:10AEE000054600213046FAF768FD2448002480F822
:10AEF00000444FF4C060F9F751FF26208DF804009C
:10AF00008DF8064001208DF807008DF8054001A856
:10AF1000F9F712FF01214804FAF728F80420ADF8E8
:10AF2000000018208DF803000320154C8DF8020056
:10AF300069462046F9F704FD0820ADF800004820D6
:10AF40008DF8030069462046F9F7FAFC2946304699
:10AF5000FAF77CFD02A8FAF72AFD02A93046FAF7B3
:10AF600017FD012240F225513046FAF756FD012126
:10AF70003046FAF722FD7FBD0044004026E000E0A5
:10AF800000080140090278000301008032080B002C
:10AF900001FF0000000904000004FF000004070591
:10AFA000020240000007058602400000070501027A
:10AFB00040000007058102400000080B0102020268
:10AFC000010009040100010202010505240010012D
:10AFD00005240100020424020205240600020705DC
:10AFE00084030800FF09040200020A0000000705AC
:10AFF0000502400000070585024000000403090423
:10B000003B0343002D0053006B00790020004D00EE
:10B010006900630072006F005300790073007400D0
:10B0200065006D00200043006F002E002C00200002
:10B030004C00740064002E00000000240343002D27
:10B040000053006B007900200043004B004C006966
:10B05000006E006B002D004C006900740065001844
:10B060000343004B004C0069006E006B002D004C48
:10B0700000690074006500260343004B004C006922
:10B08000006E006B002000530065007200690061D3
:10B09000006C00200050006F007200740012034D1D
:10B0A00000530046005400310030003000CC008EC8
:10B0B0000000000001050001008400000001000004
:10B0C00000280044006500760069006300650049BF
:10B0D000006E007400650072006600610063006528
:10B0E00000470055004900440000004E0000007B6E
:10B0F0000036003800360032006400300063003053
:10B10000002D0031006200330063002D0034003652
:10B1100000630066002D0039003100330065002D0A
:10B1200000650035006300370061003000370033F0
:10B130000031003900660036007D00000028000064
:10B1400000000104000100000000000000000157A1
:10B15000494E55534200000000000000000000006E
:10B1600000000000000A060002EF0201400100009A
:10B1700065B100080A00000091630008A56000089E
:10B1800061820008D581000899860008E161000805
:10B19000D9850008E5820008FD5F0008BCB1000801
:10B1A00000000020701A0000B0410008C4B200087E
:10B1B000701A002038110000E85C000802FF01014D
:10B1C000FF01FF01FF01FF01FF01FF01FF01FF017F
:10B1D000FF01FF01FF01FF01FF01FF01FFF1021B62
:10B1E00001034E5003138D474C08354D041AA10C32
:10B1F0001AA3045AC9141A99089A9D209AA90C9165
:10B200002AC2AE12081384AF3308781349641408B5
:10B21000155E1408915F1B08AD0413115D1B080136
:10B22000101AF5081A89041A7D041AAD041A950437
:10B230004142401260031B0812133DB1330828132A
:10B24000AFB033088E1AFC6C42041910323B1A3B23
:10B25000083224131C103320501A5F1032181A774A
:10B260000802FF2601FF01FF01FF01FF01FF01FFAF
:10B2700001DA23070113354D140815602A0808095F
:10B28000120413855F42084AFF07014DF21114238F
:10B29000A0201493804012731210199B1163FFFFBA
:10B2A000690881E910012C3A02CC0911183B040607
:10B2B000E12D0102030404051D0607080984A24AC2
:04B2C00004693000ED
:04000005080040EDC2
:00000001FF
